{
  "_format": "hh-sol-artifact-1",
  "contractName": "DropERC20",
  "sourceName": "contracts/DropERC20.sol",
  "abi": [
    {
      "inputs": [
        {
          "internalType": "address",
          "name": "_creator",
          "type": "address"
        },
        {
          "internalType": "address",
          "name": "_token",
          "type": "address"
        },
        {
          "internalType": "uint256",
          "name": "_amount",
          "type": "uint256"
        },
        {
          "internalType": "uint256",
          "name": "_maxClaims",
          "type": "uint256"
        },
        {
          "internalType": "bytes32",
          "name": "_zkPassSchemaId",
          "type": "bytes32"
        },
        {
          "internalType": "uint256",
          "name": "_expiration",
          "type": "uint256"
        },
        {
          "internalType": "string",
          "name": "_metadataIpfsHash",
          "type": "string"
        },
        {
          "internalType": "address",
          "name": "_zkPassAllocator",
          "type": "address"
        },
        {
          "internalType": "address",
          "name": "_bringToken",
          "type": "address"
        }
      ],
      "stateMutability": "nonpayable",
      "type": "constructor"
    },
    {
      "anonymous": false,
      "inputs": [
        {
          "indexed": false,
          "internalType": "address",
          "name": "bringToken",
          "type": "address"
        },
        {
          "indexed": false,
          "internalType": "uint256",
          "name": "amount",
          "type": "uint256"
        },
        {
          "indexed": false,
          "internalType": "uint256",
          "name": "totalStaked",
          "type": "uint256"
        }
      ],
      "name": "BringStaked",
      "type": "event"
    },
    {
      "anonymous": false,
      "inputs": [
        {
          "indexed": true,
          "internalType": "address",
          "name": "recipient",
          "type": "address"
        },
        {
          "indexed": false,
          "internalType": "bytes32",
          "name": "uHash",
          "type": "bytes32"
        }
      ],
      "name": "Claimed",
      "type": "event"
    },
    {
      "anonymous": false,
      "inputs": [
        {
          "indexed": false,
          "internalType": "string",
          "name": "metadataIpfsHash",
          "type": "string"
        }
      ],
      "name": "MetadataUpdated",
      "type": "event"
    },
    {
      "anonymous": false,
      "inputs": [
        {
          "indexed": true,
          "internalType": "address",
          "name": "previousOwner",
          "type": "address"
        },
        {
          "indexed": true,
          "internalType": "address",
          "name": "newOwner",
          "type": "address"
        }
      ],
      "name": "OwnershipTransferred",
      "type": "event"
    },
    {
      "anonymous": false,
      "inputs": [],
      "name": "Stopped",
      "type": "event"
    },
    {
      "anonymous": false,
      "inputs": [
        {
          "indexed": false,
          "internalType": "bytes32",
          "name": "zkPassSchemaId",
          "type": "bytes32"
        }
      ],
      "name": "zkPassSchemaIdUpdated",
      "type": "event"
    },
    {
      "inputs": [],
      "name": "BRING_TOKEN",
      "outputs": [
        {
          "internalType": "address",
          "name": "",
          "type": "address"
        }
      ],
      "stateMutability": "view",
      "type": "function"
    },
    {
      "inputs": [],
      "name": "ZK_PASS_ALLOCATOR_ADDRESS",
      "outputs": [
        {
          "internalType": "address",
          "name": "",
          "type": "address"
        }
      ],
      "stateMutability": "view",
      "type": "function"
    },
    {
      "inputs": [],
      "name": "amount",
      "outputs": [
        {
          "internalType": "uint256",
          "name": "",
          "type": "uint256"
        }
      ],
      "stateMutability": "view",
      "type": "function"
    },
    {
      "inputs": [],
      "name": "bringStaked",
      "outputs": [
        {
          "internalType": "uint256",
          "name": "",
          "type": "uint256"
        }
      ],
      "stateMutability": "view",
      "type": "function"
    },
    {
      "inputs": [
        {
          "internalType": "bytes32",
          "name": "zkPassTaskId",
          "type": "bytes32"
        },
        {
          "internalType": "address",
          "name": "validator",
          "type": "address"
        },
        {
          "internalType": "bytes32",
          "name": "uHash",
          "type": "bytes32"
        },
        {
          "internalType": "bytes32",
          "name": "publicFieldsHash",
          "type": "bytes32"
        },
        {
          "internalType": "bytes",
          "name": "allocatorSig",
          "type": "bytes"
        },
        {
          "internalType": "bytes",
          "name": "validatorSig",
          "type": "bytes"
        }
      ],
      "name": "claim",
      "outputs": [],
      "stateMutability": "nonpayable",
      "type": "function"
    },
    {
      "inputs": [
        {
          "internalType": "bytes32",
          "name": "zkPassTaskId",
          "type": "bytes32"
        },
        {
          "internalType": "address",
          "name": "validator",
          "type": "address"
        },
        {
          "internalType": "bytes32",
          "name": "uHash",
          "type": "bytes32"
        },
        {
          "internalType": "bytes32",
          "name": "publicFieldsHash",
          "type": "bytes32"
        },
        {
          "internalType": "address",
          "name": "recipient",
          "type": "address"
        },
        {
          "internalType": "address",
          "name": "ephemeralKey",
          "type": "address"
        },
        {
          "internalType": "bytes",
          "name": "ephemeralSig",
          "type": "bytes"
        },
        {
          "internalType": "bytes",
          "name": "allocatorSig",
          "type": "bytes"
        },
        {
          "internalType": "bytes",
          "name": "validatorSig",
          "type": "bytes"
        }
      ],
      "name": "claimWithEphemeralKey",
      "outputs": [],
      "stateMutability": "nonpayable",
      "type": "function"
    },
    {
      "inputs": [
        {
          "internalType": "address",
          "name": "",
          "type": "address"
        }
      ],
      "name": "claimedAddresses",
      "outputs": [
        {
          "internalType": "bool",
          "name": "",
          "type": "bool"
        }
      ],
      "stateMutability": "view",
      "type": "function"
    },
    {
      "inputs": [
        {
          "internalType": "bytes32",
          "name": "",
          "type": "bytes32"
        }
      ],
      "name": "claimedUsers",
      "outputs": [
        {
          "internalType": "bool",
          "name": "",
          "type": "bool"
        }
      ],
      "stateMutability": "view",
      "type": "function"
    },
    {
      "inputs": [],
      "name": "claims",
      "outputs": [
        {
          "internalType": "uint256",
          "name": "",
          "type": "uint256"
        }
      ],
      "stateMutability": "view",
      "type": "function"
    },
    {
      "inputs": [
        {
          "internalType": "address",
          "name": "ephemeralKey",
          "type": "address"
        }
      ],
      "name": "computeWpRecipientForEphemeralKey",
      "outputs": [
        {
          "internalType": "address",
          "name": "",
          "type": "address"
        }
      ],
      "stateMutability": "view",
      "type": "function"
    },
    {
      "inputs": [],
      "name": "expiration",
      "outputs": [
        {
          "internalType": "uint256",
          "name": "",
          "type": "uint256"
        }
      ],
      "stateMutability": "view",
      "type": "function"
    },
    {
      "inputs": [
        {
          "internalType": "address",
          "name": "userAddress",
          "type": "address"
        }
      ],
      "name": "hasAddressClaimed",
      "outputs": [
        {
          "internalType": "bool",
          "name": "",
          "type": "bool"
        }
      ],
      "stateMutability": "view",
      "type": "function"
    },
    {
      "inputs": [
        {
          "internalType": "bytes32",
          "name": "uHash",
          "type": "bytes32"
        }
      ],
      "name": "hasUserClaimed",
      "outputs": [
        {
          "internalType": "bool",
          "name": "",
          "type": "bool"
        }
      ],
      "stateMutability": "view",
      "type": "function"
    },
    {
      "inputs": [],
      "name": "maxClaims",
      "outputs": [
        {
          "internalType": "uint256",
          "name": "",
          "type": "uint256"
        }
      ],
      "stateMutability": "view",
      "type": "function"
    },
    {
      "inputs": [],
      "name": "metadataIpfsHash",
      "outputs": [
        {
          "internalType": "string",
          "name": "",
          "type": "string"
        }
      ],
      "stateMutability": "view",
      "type": "function"
    },
    {
      "inputs": [],
      "name": "owner",
      "outputs": [
        {
          "internalType": "address",
          "name": "",
          "type": "address"
        }
      ],
      "stateMutability": "view",
      "type": "function"
    },
    {
      "inputs": [],
      "name": "renounceOwnership",
      "outputs": [],
      "stateMutability": "nonpayable",
      "type": "function"
    },
    {
      "inputs": [
        {
          "internalType": "uint256",
          "name": "_amount",
          "type": "uint256"
        }
      ],
      "name": "stake",
      "outputs": [],
      "stateMutability": "nonpayable",
      "type": "function"
    },
    {
      "inputs": [],
      "name": "stop",
      "outputs": [],
      "stateMutability": "nonpayable",
      "type": "function"
    },
    {
      "inputs": [],
      "name": "stopped",
      "outputs": [
        {
          "internalType": "bool",
          "name": "",
          "type": "bool"
        }
      ],
      "stateMutability": "view",
      "type": "function"
    },
    {
      "inputs": [],
      "name": "token",
      "outputs": [
        {
          "internalType": "address",
          "name": "",
          "type": "address"
        }
      ],
      "stateMutability": "view",
      "type": "function"
    },
    {
      "inputs": [
        {
          "internalType": "address",
          "name": "newOwner",
          "type": "address"
        }
      ],
      "name": "transferOwnership",
      "outputs": [],
      "stateMutability": "nonpayable",
      "type": "function"
    },
    {
      "inputs": [
        {
          "internalType": "string",
          "name": "_metadataIpfsHash",
          "type": "string"
        }
      ],
      "name": "updateMetadata",
      "outputs": [],
      "stateMutability": "nonpayable",
      "type": "function"
    },
    {
      "inputs": [
        {
          "internalType": "bytes32",
          "name": "_zkPassSchemaId",
          "type": "bytes32"
        }
      ],
      "name": "updateZkPassSchemaId",
      "outputs": [],
      "stateMutability": "nonpayable",
      "type": "function"
    },
    {
      "inputs": [
        {
          "internalType": "bytes32",
          "name": "zkPassTaskId",
          "type": "bytes32"
        },
        {
          "internalType": "address",
          "name": "validator",
          "type": "address"
        },
        {
          "internalType": "bytes",
          "name": "allocatorSig",
          "type": "bytes"
        }
      ],
      "name": "verifyAllocatorSignature",
      "outputs": [
        {
          "internalType": "bool",
          "name": "",
          "type": "bool"
        }
      ],
      "stateMutability": "view",
      "type": "function"
    },
    {
      "inputs": [
        {
          "internalType": "address",
          "name": "recipient",
          "type": "address"
        },
        {
          "internalType": "address",
          "name": "ephemeralKey",
          "type": "address"
        },
        {
          "internalType": "bytes",
          "name": "ephemeralSig",
          "type": "bytes"
        }
      ],
      "name": "verifyEphemeralSignature",
      "outputs": [
        {
          "internalType": "bool",
          "name": "",
          "type": "bool"
        }
      ],
      "stateMutability": "pure",
      "type": "function"
    },
    {
      "inputs": [
        {
          "internalType": "bytes32",
          "name": "zkPassTaskId",
          "type": "bytes32"
        },
        {
          "internalType": "bytes32",
          "name": "uHash",
          "type": "bytes32"
        },
        {
          "internalType": "bytes32",
          "name": "publicFieldsHash",
          "type": "bytes32"
        },
        {
          "internalType": "address",
          "name": "webproofRecipientAddress",
          "type": "address"
        },
        {
          "internalType": "address",
          "name": "validator",
          "type": "address"
        },
        {
          "internalType": "bytes",
          "name": "validatorSig",
          "type": "bytes"
        }
      ],
      "name": "verifyValidatorSignature",
      "outputs": [
        {
          "internalType": "bool",
          "name": "",
          "type": "bool"
        }
      ],
      "stateMutability": "view",
      "type": "function"
    },
    {
      "inputs": [],
      "name": "zkPassSchemaId",
      "outputs": [
        {
          "internalType": "bytes32",
          "name": "",
          "type": "bytes32"
        }
      ],
      "stateMutability": "view",
      "type": "function"
    }
  ],
  "bytecode": "0x6101406040523480156200001257600080fd5b506040516200371038038062003710833981810160405281019062000038919062000542565b620000586200004c6200014e60201b60201c565b6200015660201b60201c565b8773ffffffffffffffffffffffffffffffffffffffff1660808173ffffffffffffffffffffffffffffffffffffffff16815250508660a081815250508560c08181525050846001819055508360e081815250508260049080519060200190620000c39291906200021a565b508173ffffffffffffffffffffffffffffffffffffffff166101208173ffffffffffffffffffffffffffffffffffffffff16815250508073ffffffffffffffffffffffffffffffffffffffff166101008173ffffffffffffffffffffffffffffffffffffffff16815250506200013f896200015660201b60201c565b505050505050505050620006a5565b600033905090565b60008060009054906101000a900473ffffffffffffffffffffffffffffffffffffffff169050816000806101000a81548173ffffffffffffffffffffffffffffffffffffffff021916908373ffffffffffffffffffffffffffffffffffffffff1602179055508173ffffffffffffffffffffffffffffffffffffffff168173ffffffffffffffffffffffffffffffffffffffff167f8be0079c531659141344cd1fd0a4f28419497f9722a3daafe3b4186f6b6457e060405160405180910390a35050565b82805462000228906200066f565b90600052602060002090601f0160209004810192826200024c576000855562000298565b82601f106200026757805160ff191683800117855562000298565b8280016001018555821562000298579182015b82811115620002975782518255916020019190600101906200027a565b5b509050620002a79190620002ab565b5090565b5b80821115620002c6576000816000905550600101620002ac565b5090565b6000604051905090565b600080fd5b600080fd5b600073ffffffffffffffffffffffffffffffffffffffff82169050919050565b60006200030b82620002de565b9050919050565b6200031d81620002fe565b81146200032957600080fd5b50565b6000815190506200033d8162000312565b92915050565b6000819050919050565b620003588162000343565b81146200036457600080fd5b50565b60008151905062000378816200034d565b92915050565b6000819050919050565b62000393816200037e565b81146200039f57600080fd5b50565b600081519050620003b38162000388565b92915050565b600080fd5b600080fd5b6000601f19601f8301169050919050565b7f4e487b7100000000000000000000000000000000000000000000000000000000600052604160045260246000fd5b6200040e82620003c3565b810181811067ffffffffffffffff8211171562000430576200042f620003d4565b5b80604052505050565b600062000445620002ca565b905062000453828262000403565b919050565b600067ffffffffffffffff821115620004765762000475620003d4565b5b6200048182620003c3565b9050602081019050919050565b60005b83811015620004ae57808201518184015260208101905062000491565b83811115620004be576000848401525b50505050565b6000620004db620004d58462000458565b62000439565b905082815260208101848484011115620004fa57620004f9620003be565b5b620005078482856200048e565b509392505050565b600082601f830112620005275762000526620003b9565b5b815162000539848260208601620004c4565b91505092915050565b60008060008060008060008060006101208a8c031215620005685762000567620002d4565b5b6000620005788c828d016200032c565b99505060206200058b8c828d016200032c565b98505060406200059e8c828d0162000367565b9750506060620005b18c828d0162000367565b9650506080620005c48c828d01620003a2565b95505060a0620005d78c828d0162000367565b94505060c08a015167ffffffffffffffff811115620005fb57620005fa620002d9565b5b620006098c828d016200050f565b93505060e06200061c8c828d016200032c565b925050610100620006308c828d016200032c565b9150509295985092959850929598565b7f4e487b7100000000000000000000000000000000000000000000000000000000600052602260045260246000fd5b600060028204905060018216806200068857607f821691505b602082108114156200069f576200069e62000640565b5b50919050565b60805160a05160c05160e0516101005161012051612fb962000757600039600081816105cb0152610c6e015260008181610846015281816108ea01528181610f3f015281816110580152611216015260008181610b0001528181610d8f01528181610e9a0152818161113d01526113af0152600081816111ec01526114ff01526000818161109701526116d30152600081816106b901528181610755015281816112de01526116960152612fb96000f3fe608060405234801561001057600080fd5b50600436106101c45760003560e01c806384515a44116100f9578063cf47debc11610097578063e7c81d7a11610071578063e7c81d7a146104e5578063f1429a9614610503578063f2fde38b14610533578063fc0c546a1461054f576101c4565b8063cf47debc14610479578063cf5380b4146104a9578063dcc59b6f146104c7576101c4565b8063a694fc3a116100d3578063a694fc3a146103f3578063aa8c217c1461040f578063bf6d218d1461042d578063c6325ef41461045d576101c4565b806384515a441461039b5780638da5cb5b146103b9578063918b5be1146103d7576101c4565b80634fb745af1161016657806375f12b211161014057806375f12b21146102ff5780637794f07e1461031d57806379f80f741461033b578063832e3f881461036b576101c4565b80634fb745af1461029557806357421f1a146102c5578063715018a6146102f5576101c4565b806307da68f5116101a257806307da68f514610233578063306292fe1461023d57806337e58fca1461025b5780634665096d14610277576101c4565b806303337282146101c9578063037837d5146101e757806304c3704d14610217575b600080fd5b6101d161056d565b6040516101de9190611c92565b60405180910390f35b61020160048036038101906101fc9190611e9b565b610573565b60405161020e9190611f25565b60405180910390f35b610231600480360381019061022c9190611f40565b610624565b005b61023b610642565b005b6102456109fd565b604051610252919061208d565b60405180910390f35b610275600480360381019061027091906120af565b610a8b565b005b61027f610afe565b60405161028c9190611c92565b60405180910390f35b6102af60048036038101906102aa91906121cd565b610b22565b6040516102bc9190611f25565b60405180910390f35b6102df60048036038101906102da919061223c565b610bad565b6040516102ec9190611f25565b60405180910390f35b6102fd610c45565b005b610307610c59565b6040516103149190611f25565b60405180910390f35b610325610c6c565b60405161033291906122f4565b60405180910390f35b6103556004803603810190610350919061230f565b610c90565b6040516103629190611f25565b60405180910390f35b6103856004803603810190610380919061233c565b610cb0565b6040516103929190611f25565b60405180910390f35b6103a3610d06565b6040516103b09190612378565b60405180910390f35b6103c1610d0c565b6040516103ce91906122f4565b60405180910390f35b6103f160048036038101906103ec9190612434565b610d35565b005b61040d600480360381019061040891906124a9565b610e40565b005b610417611095565b6040516104249190611c92565b60405180910390f35b6104476004803603810190610442919061230f565b6110b9565b6040516104549190611f25565b60405180910390f35b6104776004803603810190610472919061230f565b6110e3565b005b610493600480360381019061048e919061233c565b6111de565b6040516104a091906122f4565b60405180910390f35b6104b16111ea565b6040516104be9190611c92565b60405180910390f35b6104cf61120e565b6040516104dc9190611c92565b60405180910390f35b6104ed611214565b6040516104fa91906122f4565b60405180910390f35b61051d6004803603810190610518919061233c565b611238565b60405161052a9190611f25565b60405180910390f35b61054d6004803603810190610548919061233c565b611258565b005b6105576112dc565b60405161056491906122f4565b60405180910390f35b60025481565b600080846001548560405160200161058d939291906124d6565b604051602081830303815290604052905060006105b08280519060200120611300565b905060006105c7858361133690919063ffffffff16565b90507f000000000000000000000000000000000000000000000000000000000000000073ffffffffffffffffffffffffffffffffffffffff168173ffffffffffffffffffffffffffffffffffffffff161493505050509392505050565b6000339050610639878787878586898961135d565b50505050505050565b61064a6117e9565b600560009054906101000a900460ff161561069a576040517f08c379a000000000000000000000000000000000000000000000000000000000815260040161069190612559565b60405180910390fd5b6001600560006101000a81548160ff02191690831515021790555060007f000000000000000000000000000000000000000000000000000000000000000073ffffffffffffffffffffffffffffffffffffffff166370a08231306040518263ffffffff1660e01b815260040161071091906122f4565b602060405180830381865afa15801561072d573d6000803e3d6000fd5b505050506040513d601f19601f82011682018060405250810190610751919061258e565b90507f000000000000000000000000000000000000000000000000000000000000000073ffffffffffffffffffffffffffffffffffffffff1663a9059cbb610797610d0c565b836040518363ffffffff1660e01b81526004016107b59291906125bb565b6020604051808303816000875af11580156107d4573d6000803e3d6000fd5b505050506040513d601f19601f820116820180604052508101906107f89190612610565b610837576040517f08c379a000000000000000000000000000000000000000000000000000000000815260040161082e90612689565b60405180910390fd5b600060025411156109ce5760007f000000000000000000000000000000000000000000000000000000000000000073ffffffffffffffffffffffffffffffffffffffff166370a08231306040518263ffffffff1660e01b815260040161089d91906122f4565b602060405180830381865afa1580156108ba573d6000803e3d6000fd5b505050506040513d601f19601f820116820180604052508101906108de919061258e565b905060006002819055507f000000000000000000000000000000000000000000000000000000000000000073ffffffffffffffffffffffffffffffffffffffff1663a9059cbb61092c610d0c565b836040518363ffffffff1660e01b815260040161094a9291906125bb565b6020604051808303816000875af1158015610969573d6000803e3d6000fd5b505050506040513d601f19601f8201168201806040525081019061098d9190612610565b6109cc576040517f08c379a00000000000000000000000000000000000000000000000000000000081526004016109c3906126f5565b60405180910390fd5b505b7f7acc84e34091ae817647a4c49116f5cc07f319078ba80f8f5fde37ea7e25cbd660405160405180910390a150565b60048054610a0a90612744565b80601f0160208091040260200160405190810160405280929190818152602001828054610a3690612744565b8015610a835780601f10610a5857610100808354040283529160200191610a83565b820191906000526020600020905b815481529060010190602001808311610a6657829003601f168201915b505050505081565b6000610a96856111de565b9050610aa3868686610b22565b610ae2576040517f08c379a0000000000000000000000000000000000000000000000000000000008152600401610ad9906127c2565b60405180910390fd5b610af28a8a8a8a8a86898961135d565b50505050505050505050565b7f000000000000000000000000000000000000000000000000000000000000000081565b60008084604051602001610b3691906122f4565b60405160208183030381529060405290506000610b598280519060200120611300565b90506000610b70858361133690919063ffffffff16565b90508573ffffffffffffffffffffffffffffffffffffffff168173ffffffffffffffffffffffffffffffffffffffff161493505050509392505050565b60008087600154888888604051602001610bcb9594939291906127e2565b60405160208183030381529060405290506000610bee8280519060200120611300565b90506000610c05858361133690919063ffffffff16565b90508573ffffffffffffffffffffffffffffffffffffffff168173ffffffffffffffffffffffffffffffffffffffff161493505050509695505050505050565b610c4d6117e9565b610c576000611867565b565b600560009054906101000a900460ff1681565b7f000000000000000000000000000000000000000000000000000000000000000081565b60066020528060005260406000206000915054906101000a900460ff1681565b6000600760008373ffffffffffffffffffffffffffffffffffffffff1673ffffffffffffffffffffffffffffffffffffffff16815260200190815260200160002060009054906101000a900460ff169050919050565b60015481565b60008060009054906101000a900473ffffffffffffffffffffffffffffffffffffffff16905090565b610d3d6117e9565b600560009054906101000a900460ff1615610d8d576040517f08c379a0000000000000000000000000000000000000000000000000000000008152600401610d8490612559565b60405180910390fd5b7f00000000000000000000000000000000000000000000000000000000000000004210610def576040517f08c379a0000000000000000000000000000000000000000000000000000000008152600401610de690612881565b60405180910390fd5b8060049080519060200190610e05929190611bd6565b507f1c306e70c05992619e2128ad1ef88df75f36c9476282e59f51401b2abaa42e4e81604051610e35919061208d565b60405180910390a150565b610e486117e9565b600560009054906101000a900460ff1615610e98576040517f08c379a0000000000000000000000000000000000000000000000000000000008152600401610e8f90612559565b60405180910390fd5b7f00000000000000000000000000000000000000000000000000000000000000004210610efa576040517f08c379a0000000000000000000000000000000000000000000000000000000008152600401610ef190612881565b60405180910390fd5b60008111610f3d576040517f08c379a0000000000000000000000000000000000000000000000000000000008152600401610f3490612913565b60405180910390fd5b7f000000000000000000000000000000000000000000000000000000000000000073ffffffffffffffffffffffffffffffffffffffff166323b872dd3330846040518463ffffffff1660e01b8152600401610f9a93929190612933565b6020604051808303816000875af1158015610fb9573d6000803e3d6000fd5b505050506040513d601f19601f82011682018060405250810190610fdd9190612610565b61101c576040517f08c379a0000000000000000000000000000000000000000000000000000000008152600401611013906126f5565b60405180910390fd5b806002600082825461102e9190612999565b925050819055507f75efb2dbfa8702e48013d6069b763368afaef74542a160687988df3967df92427f00000000000000000000000000000000000000000000000000000000000000008260025460405161108a939291906129ef565b60405180910390a150565b7f000000000000000000000000000000000000000000000000000000000000000081565b60006006600083815260200190815260200160002060009054906101000a900460ff169050919050565b6110eb6117e9565b600560009054906101000a900460ff161561113b576040517f08c379a000000000000000000000000000000000000000000000000000000000815260040161113290612559565b60405180910390fd5b7f0000000000000000000000000000000000000000000000000000000000000000421061119d576040517f08c379a000000000000000000000000000000000000000000000000000000000815260040161119490612881565b60405180910390fd5b806001819055507faf597db3a443882ad65aa22dd82652a40dd88df734b27ec59ba0e2f638d207cb816040516111d39190612378565b60405180910390a150565b60008130189050919050565b7f000000000000000000000000000000000000000000000000000000000000000081565b60035481565b7f000000000000000000000000000000000000000000000000000000000000000081565b60076020528060005260406000206000915054906101000a900460ff1681565b6112606117e9565b600073ffffffffffffffffffffffffffffffffffffffff168173ffffffffffffffffffffffffffffffffffffffff1614156112d0576040517f08c379a00000000000000000000000000000000000000000000000000000000081526004016112c790612a98565b60405180910390fd5b6112d981611867565b50565b7f000000000000000000000000000000000000000000000000000000000000000081565b60007f19457468657265756d205369676e6564204d6573736167653a0a33320000000060005281601c52603c6000209050919050565b6000806000611345858561192b565b915091506113528161197d565b819250505092915050565b600560009054906101000a900460ff16156113ad576040517f08c379a00000000000000000000000000000000000000000000000000000000081526004016113a490612559565b60405180910390fd5b7f0000000000000000000000000000000000000000000000000000000000000000421061140f576040517f08c379a000000000000000000000000000000000000000000000000000000000815260040161140690612881565b60405180910390fd5b6006600087815260200190815260200160002060009054906101000a900460ff1615611470576040517f08c379a000000000000000000000000000000000000000000000000000000000815260040161146790612b04565b60405180910390fd5b600760008573ffffffffffffffffffffffffffffffffffffffff1673ffffffffffffffffffffffffffffffffffffffff16815260200190815260200160002060009054906101000a900460ff16156114fd576040517f08c379a00000000000000000000000000000000000000000000000000000000081526004016114f490612b70565b60405180910390fd5b7f000000000000000000000000000000000000000000000000000000000000000060035410611561576040517f08c379a000000000000000000000000000000000000000000000000000000000815260040161155890612bdc565b60405180910390fd5b61156c888884610573565b6115ab576040517f08c379a00000000000000000000000000000000000000000000000000000000081526004016115a290612c48565b60405180910390fd5b6115b9888787868b86610bad565b6115f8576040517f08c379a00000000000000000000000000000000000000000000000000000000081526004016115ef90612cb4565b60405180910390fd5b60016006600088815260200190815260200160002060006101000a81548160ff0219169083151502179055506001600760008673ffffffffffffffffffffffffffffffffffffffff1673ffffffffffffffffffffffffffffffffffffffff16815260200190815260200160002060006101000a81548160ff0219169083151502179055506003600081548092919061168f90612cd4565b91905055507f000000000000000000000000000000000000000000000000000000000000000073ffffffffffffffffffffffffffffffffffffffff1663a9059cbb857f00000000000000000000000000000000000000000000000000000000000000006040518363ffffffff1660e01b815260040161170f9291906125bb565b6020604051808303816000875af115801561172e573d6000803e3d6000fd5b505050506040513d601f19601f820116820180604052508101906117529190612610565b611791576040517f08c379a000000000000000000000000000000000000000000000000000000000815260040161178890612689565b60405180910390fd5b8373ffffffffffffffffffffffffffffffffffffffff167f91d697238e9aa9f3172d17522c9be529b94a892481554e1ea619369b5b12f39a876040516117d79190612378565b60405180910390a25050505050505050565b6117f1611aeb565b73ffffffffffffffffffffffffffffffffffffffff1661180f610d0c565b73ffffffffffffffffffffffffffffffffffffffff1614611865576040517f08c379a000000000000000000000000000000000000000000000000000000000815260040161185c90612d69565b60405180910390fd5b565b60008060009054906101000a900473ffffffffffffffffffffffffffffffffffffffff169050816000806101000a81548173ffffffffffffffffffffffffffffffffffffffff021916908373ffffffffffffffffffffffffffffffffffffffff1602179055508173ffffffffffffffffffffffffffffffffffffffff168173ffffffffffffffffffffffffffffffffffffffff167f8be0079c531659141344cd1fd0a4f28419497f9722a3daafe3b4186f6b6457e060405160405180910390a35050565b60008060418351141561196d5760008060006020860151925060408601519150606086015160001a905061196187828585611af3565b94509450505050611976565b60006002915091505b9250929050565b6000600481111561199157611990612d89565b5b8160048111156119a4576119a3612d89565b5b14156119af57611ae8565b600160048111156119c3576119c2612d89565b5b8160048111156119d6576119d5612d89565b5b1415611a17576040517f08c379a0000000000000000000000000000000000000000000000000000000008152600401611a0e90612e04565b60405180910390fd5b60026004811115611a2b57611a2a612d89565b5b816004811115611a3e57611a3d612d89565b5b1415611a7f576040517f08c379a0000000000000000000000000000000000000000000000000000000008152600401611a7690612e70565b60405180910390fd5b60036004811115611a9357611a92612d89565b5b816004811115611aa657611aa5612d89565b5b1415611ae7576040517f08c379a0000000000000000000000000000000000000000000000000000000008152600401611ade90612f02565b60405180910390fd5b5b50565b600033905090565b6000807f7fffffffffffffffffffffffffffffff5d576e7357a4501ddfe92f46681b20a08360001c1115611b2e576000600391509150611bcd565b600060018787878760405160008152602001604052604051611b539493929190612f3e565b6020604051602081039080840390855afa158015611b75573d6000803e3d6000fd5b505050602060405103519050600073ffffffffffffffffffffffffffffffffffffffff168173ffffffffffffffffffffffffffffffffffffffff161415611bc457600060019250925050611bcd565b80600092509250505b94509492505050565b828054611be290612744565b90600052602060002090601f016020900481019282611c045760008555611c4b565b82601f10611c1d57805160ff1916838001178555611c4b565b82800160010185558215611c4b579182015b82811115611c4a578251825591602001919060010190611c2f565b5b509050611c589190611c5c565b5090565b5b80821115611c75576000816000905550600101611c5d565b5090565b6000819050919050565b611c8c81611c79565b82525050565b6000602082019050611ca76000830184611c83565b92915050565b6000604051905090565b600080fd5b600080fd5b6000819050919050565b611cd481611cc1565b8114611cdf57600080fd5b50565b600081359050611cf181611ccb565b92915050565b600073ffffffffffffffffffffffffffffffffffffffff82169050919050565b6000611d2282611cf7565b9050919050565b611d3281611d17565b8114611d3d57600080fd5b50565b600081359050611d4f81611d29565b92915050565b600080fd5b600080fd5b6000601f19601f8301169050919050565b7f4e487b7100000000000000000000000000000000000000000000000000000000600052604160045260246000fd5b611da882611d5f565b810181811067ffffffffffffffff82111715611dc757611dc6611d70565b5b80604052505050565b6000611dda611cad565b9050611de68282611d9f565b919050565b600067ffffffffffffffff821115611e0657611e05611d70565b5b611e0f82611d5f565b9050602081019050919050565b82818337600083830152505050565b6000611e3e611e3984611deb565b611dd0565b905082815260208101848484011115611e5a57611e59611d5a565b5b611e65848285611e1c565b509392505050565b600082601f830112611e8257611e81611d55565b5b8135611e92848260208601611e2b565b91505092915050565b600080600060608486031215611eb457611eb3611cb7565b5b6000611ec286828701611ce2565b9350506020611ed386828701611d40565b925050604084013567ffffffffffffffff811115611ef457611ef3611cbc565b5b611f0086828701611e6d565b9150509250925092565b60008115159050919050565b611f1f81611f0a565b82525050565b6000602082019050611f3a6000830184611f16565b92915050565b60008060008060008060c08789031215611f5d57611f5c611cb7565b5b6000611f6b89828a01611ce2565b9650506020611f7c89828a01611d40565b9550506040611f8d89828a01611ce2565b9450506060611f9e89828a01611ce2565b935050608087013567ffffffffffffffff811115611fbf57611fbe611cbc565b5b611fcb89828a01611e6d565b92505060a087013567ffffffffffffffff811115611fec57611feb611cbc565b5b611ff889828a01611e6d565b9150509295509295509295565b600081519050919050565b600082825260208201905092915050565b60005b8381101561203f578082015181840152602081019050612024565b8381111561204e576000848401525b50505050565b600061205f82612005565b6120698185612010565b9350612079818560208601612021565b61208281611d5f565b840191505092915050565b600060208201905081810360008301526120a78184612054565b905092915050565b60008060008060008060008060006101208a8c0312156120d2576120d1611cb7565b5b60006120e08c828d01611ce2565b99505060206120f18c828d01611d40565b98505060406121028c828d01611ce2565b97505060606121138c828d01611ce2565b96505060806121248c828d01611d40565b95505060a06121358c828d01611d40565b94505060c08a013567ffffffffffffffff81111561215657612155611cbc565b5b6121628c828d01611e6d565b93505060e08a013567ffffffffffffffff81111561218357612182611cbc565b5b61218f8c828d01611e6d565b9250506101008a013567ffffffffffffffff8111156121b1576121b0611cbc565b5b6121bd8c828d01611e6d565b9150509295985092959850929598565b6000806000606084860312156121e6576121e5611cb7565b5b60006121f486828701611d40565b935050602061220586828701611d40565b925050604084013567ffffffffffffffff81111561222657612225611cbc565b5b61223286828701611e6d565b9150509250925092565b60008060008060008060c0878903121561225957612258611cb7565b5b600061226789828a01611ce2565b965050602061227889828a01611ce2565b955050604061228989828a01611ce2565b945050606061229a89828a01611d40565b93505060806122ab89828a01611d40565b92505060a087013567ffffffffffffffff8111156122cc576122cb611cbc565b5b6122d889828a01611e6d565b9150509295509295509295565b6122ee81611d17565b82525050565b600060208201905061230960008301846122e5565b92915050565b60006020828403121561232557612324611cb7565b5b600061233384828501611ce2565b91505092915050565b60006020828403121561235257612351611cb7565b5b600061236084828501611d40565b91505092915050565b61237281611cc1565b82525050565b600060208201905061238d6000830184612369565b92915050565b600067ffffffffffffffff8211156123ae576123ad611d70565b5b6123b782611d5f565b9050602081019050919050565b60006123d76123d284612393565b611dd0565b9050828152602081018484840111156123f3576123f2611d5a565b5b6123fe848285611e1c565b509392505050565b600082601f83011261241b5761241a611d55565b5b813561242b8482602086016123c4565b91505092915050565b60006020828403121561244a57612449611cb7565b5b600082013567ffffffffffffffff81111561246857612467611cbc565b5b61247484828501612406565b91505092915050565b61248681611c79565b811461249157600080fd5b50565b6000813590506124a38161247d565b92915050565b6000602082840312156124bf576124be611cb7565b5b60006124cd84828501612494565b91505092915050565b60006060820190506124eb6000830186612369565b6124f86020830185612369565b61250560408301846122e5565b949350505050565b7f43616d706169676e2073746f7070656400000000000000000000000000000000600082015250565b6000612543601083612010565b915061254e8261250d565b602082019050919050565b6000602082019050818103600083015261257281612536565b9050919050565b6000815190506125888161247d565b92915050565b6000602082840312156125a4576125a3611cb7565b5b60006125b284828501612579565b91505092915050565b60006040820190506125d060008301856122e5565b6125dd6020830184611c83565b9392505050565b6125ed81611f0a565b81146125f857600080fd5b50565b60008151905061260a816125e4565b92915050565b60006020828403121561262657612625611cb7565b5b6000612634848285016125fb565b91505092915050565b7f546f6b656e207472616e73666572206661696c65640000000000000000000000600082015250565b6000612673601583612010565b915061267e8261263d565b602082019050919050565b600060208201905081810360008301526126a281612666565b9050919050565b7f4272696e6720746f6b656e207472616e73666572206661696c65640000000000600082015250565b60006126df601b83612010565b91506126ea826126a9565b602082019050919050565b6000602082019050818103600083015261270e816126d2565b9050919050565b7f4e487b7100000000000000000000000000000000000000000000000000000000600052602260045260246000fd5b6000600282049050600182168061275c57607f821691505b602082108114156127705761276f612715565b5b50919050565b7f496e76616c696420657068656d6572616c206b6579207369676e617475726500600082015250565b60006127ac601f83612010565b91506127b782612776565b602082019050919050565b600060208201905081810360008301526127db8161279f565b9050919050565b600060a0820190506127f76000830188612369565b6128046020830187612369565b6128116040830186612369565b61281e6060830185612369565b61282b60808301846122e5565b9695505050505050565b7f44726f7020686173206578706972656400000000000000000000000000000000600082015250565b600061286b601083612010565b915061287682612835565b602082019050919050565b6000602082019050818103600083015261289a8161285e565b9050919050565b7f5374616b6520616d6f756e74206d75737420626520677265617465722074686160008201527f6e207a65726f0000000000000000000000000000000000000000000000000000602082015250565b60006128fd602683612010565b9150612908826128a1565b604082019050919050565b6000602082019050818103600083015261292c816128f0565b9050919050565b600060608201905061294860008301866122e5565b61295560208301856122e5565b6129626040830184611c83565b949350505050565b7f4e487b7100000000000000000000000000000000000000000000000000000000600052601160045260246000fd5b60006129a482611c79565b91506129af83611c79565b9250827fffffffffffffffffffffffffffffffffffffffffffffffffffffffffffffffff038211156129e4576129e361296a565b5b828201905092915050565b6000606082019050612a0460008301866122e5565b612a116020830185611c83565b612a1e6040830184611c83565b949350505050565b7f4f776e61626c653a206e6577206f776e657220697320746865207a65726f206160008201527f6464726573730000000000000000000000000000000000000000000000000000602082015250565b6000612a82602683612010565b9150612a8d82612a26565b604082019050919050565b60006020820190508181036000830152612ab181612a75565b9050919050565b7f55736572202875486173682920616c726561647920636c61696d656400000000600082015250565b6000612aee601c83612010565b9150612af982612ab8565b602082019050919050565b60006020820190508181036000830152612b1d81612ae1565b9050919050565b7f55736572206164647265737320616c726561647920636c61696d656400000000600082015250565b6000612b5a601c83612010565b9150612b6582612b24565b602082019050919050565b60006020820190508181036000830152612b8981612b4d565b9050919050565b7f416c6c20636c61696d7320657868617573746564000000000000000000000000600082015250565b6000612bc6601483612010565b9150612bd182612b90565b602082019050919050565b60006020820190508181036000830152612bf581612bb9565b9050919050565b7f496e76616c696420616c6c6f6361746f72207369676e61747572650000000000600082015250565b6000612c32601b83612010565b9150612c3d82612bfc565b602082019050919050565b60006020820190508181036000830152612c6181612c25565b9050919050565b7f496e76616c69642076616c696461746f72207369676e61747572650000000000600082015250565b6000612c9e601b83612010565b9150612ca982612c68565b602082019050919050565b60006020820190508181036000830152612ccd81612c91565b9050919050565b6000612cdf82611c79565b91507fffffffffffffffffffffffffffffffffffffffffffffffffffffffffffffffff821415612d1257612d1161296a565b5b600182019050919050565b7f4f776e61626c653a2063616c6c6572206973206e6f7420746865206f776e6572600082015250565b6000612d53602083612010565b9150612d5e82612d1d565b602082019050919050565b60006020820190508181036000830152612d8281612d46565b9050919050565b7f4e487b7100000000000000000000000000000000000000000000000000000000600052602160045260246000fd5b7f45434453413a20696e76616c6964207369676e61747572650000000000000000600082015250565b6000612dee601883612010565b9150612df982612db8565b602082019050919050565b60006020820190508181036000830152612e1d81612de1565b9050919050565b7f45434453413a20696e76616c6964207369676e6174757265206c656e67746800600082015250565b6000612e5a601f83612010565b9150612e6582612e24565b602082019050919050565b60006020820190508181036000830152612e8981612e4d565b9050919050565b7f45434453413a20696e76616c6964207369676e6174757265202773272076616c60008201527f7565000000000000000000000000000000000000000000000000000000000000602082015250565b6000612eec602283612010565b9150612ef782612e90565b604082019050919050565b60006020820190508181036000830152612f1b81612edf565b9050919050565b600060ff82169050919050565b612f3881612f22565b82525050565b6000608082019050612f536000830187612369565b612f606020830186612f2f565b612f6d6040830185612369565b612f7a6060830184612369565b9594505050505056fea26469706673582212205b9e2c1784d700f7f4e34a7693c725fdf5b35ba7fda990ce2085b7d3285d5d5364736f6c634300080a0033",
  "linkReferences": {},
  "deployedLinkReferences": {}
}