{
  "_format": "hh-sol-artifact-1",
  "contractName": "DropERC20",
  "sourceName": "contracts/DropERC20.sol",
  "abi": [
    {
      "inputs": [
        {
          "internalType": "address",
          "name": "_creator",
          "type": "address"
        },
        {
          "internalType": "address",
          "name": "_token",
          "type": "address"
        },
        {
          "internalType": "uint256",
          "name": "_amount",
          "type": "uint256"
        },
        {
          "internalType": "uint256",
          "name": "_maxClaims",
          "type": "uint256"
        },
        {
          "internalType": "bytes32",
          "name": "_zkPassSchemaId",
          "type": "bytes32"
        },
        {
          "internalType": "uint256",
          "name": "_expiration",
          "type": "uint256"
        },
        {
          "internalType": "string",
          "name": "_metadataIpfsHash",
          "type": "string"
        },
        {
          "internalType": "address",
          "name": "_zkPassAllocator",
          "type": "address"
        },
        {
          "internalType": "address",
          "name": "_bringToken",
          "type": "address"
        }
      ],
      "stateMutability": "nonpayable",
      "type": "constructor"
    },
    {
      "anonymous": false,
      "inputs": [
        {
          "indexed": false,
          "internalType": "address",
          "name": "bringToken",
          "type": "address"
        },
        {
          "indexed": false,
          "internalType": "uint256",
          "name": "amount",
          "type": "uint256"
        },
        {
          "indexed": false,
          "internalType": "uint256",
          "name": "totalStaked",
          "type": "uint256"
        }
      ],
      "name": "BringStaked",
      "type": "event"
    },
    {
      "anonymous": false,
      "inputs": [
        {
          "indexed": true,
          "internalType": "address",
          "name": "recipient",
          "type": "address"
        },
        {
          "indexed": false,
          "internalType": "bytes32",
          "name": "uHash",
          "type": "bytes32"
        }
      ],
      "name": "Claimed",
      "type": "event"
    },
    {
      "anonymous": false,
      "inputs": [
        {
          "indexed": false,
          "internalType": "string",
          "name": "metadataIpfsHash",
          "type": "string"
        }
      ],
      "name": "MetadataUpdated",
      "type": "event"
    },
    {
      "anonymous": false,
      "inputs": [
        {
          "indexed": true,
          "internalType": "address",
          "name": "previousOwner",
          "type": "address"
        },
        {
          "indexed": true,
          "internalType": "address",
          "name": "newOwner",
          "type": "address"
        }
      ],
      "name": "OwnershipTransferred",
      "type": "event"
    },
    {
      "anonymous": false,
      "inputs": [],
      "name": "Stopped",
      "type": "event"
    },
    {
      "inputs": [],
      "name": "BRING_TOKEN",
      "outputs": [
        {
          "internalType": "address",
          "name": "",
          "type": "address"
        }
      ],
      "stateMutability": "view",
      "type": "function"
    },
    {
      "inputs": [],
      "name": "ZK_PASS_ALLOCATOR_ADDRESS",
      "outputs": [
        {
          "internalType": "address",
          "name": "",
          "type": "address"
        }
      ],
      "stateMutability": "view",
      "type": "function"
    },
    {
      "inputs": [],
      "name": "amount",
      "outputs": [
        {
          "internalType": "uint256",
          "name": "",
          "type": "uint256"
        }
      ],
      "stateMutability": "view",
      "type": "function"
    },
    {
      "inputs": [],
      "name": "bringStaked",
      "outputs": [
        {
          "internalType": "uint256",
          "name": "",
          "type": "uint256"
        }
      ],
      "stateMutability": "view",
      "type": "function"
    },
    {
      "inputs": [
        {
          "internalType": "bytes32",
          "name": "zkPassTaskId",
          "type": "bytes32"
        },
        {
          "internalType": "address",
          "name": "validator",
          "type": "address"
        },
        {
          "internalType": "bytes32",
          "name": "uHash",
          "type": "bytes32"
        },
        {
          "internalType": "bytes32",
          "name": "publicFieldsHash",
          "type": "bytes32"
        },
        {
          "internalType": "bytes",
          "name": "allocatorSig",
          "type": "bytes"
        },
        {
          "internalType": "bytes",
          "name": "validatorSig",
          "type": "bytes"
        }
      ],
      "name": "claim",
      "outputs": [],
      "stateMutability": "nonpayable",
      "type": "function"
    },
    {
      "inputs": [
        {
          "internalType": "bytes32",
          "name": "zkPassTaskId",
          "type": "bytes32"
        },
        {
          "internalType": "address",
          "name": "validator",
          "type": "address"
        },
        {
          "internalType": "bytes32",
          "name": "uHash",
          "type": "bytes32"
        },
        {
          "internalType": "bytes32",
          "name": "publicFieldsHash",
          "type": "bytes32"
        },
        {
          "internalType": "address",
          "name": "recipient",
          "type": "address"
        },
        {
          "internalType": "address",
          "name": "ephemeralKey",
          "type": "address"
        },
        {
          "internalType": "bytes",
          "name": "ephemeralSig",
          "type": "bytes"
        },
        {
          "internalType": "bytes",
          "name": "allocatorSig",
          "type": "bytes"
        },
        {
          "internalType": "bytes",
          "name": "validatorSig",
          "type": "bytes"
        }
      ],
      "name": "claimWithEphemeralKey",
      "outputs": [],
      "stateMutability": "nonpayable",
      "type": "function"
    },
    {
      "inputs": [
        {
          "internalType": "address",
          "name": "",
          "type": "address"
        }
      ],
      "name": "claimedAddresses",
      "outputs": [
        {
          "internalType": "bool",
          "name": "",
          "type": "bool"
        }
      ],
      "stateMutability": "view",
      "type": "function"
    },
    {
      "inputs": [
        {
          "internalType": "bytes32",
          "name": "",
          "type": "bytes32"
        }
      ],
      "name": "claimedUsers",
      "outputs": [
        {
          "internalType": "bool",
          "name": "",
          "type": "bool"
        }
      ],
      "stateMutability": "view",
      "type": "function"
    },
    {
      "inputs": [],
      "name": "claims",
      "outputs": [
        {
          "internalType": "uint256",
          "name": "",
          "type": "uint256"
        }
      ],
      "stateMutability": "view",
      "type": "function"
    },
    {
      "inputs": [
        {
          "internalType": "address",
          "name": "ephemeralKey",
          "type": "address"
        }
      ],
      "name": "computeWpRecipientForEphemeralKey",
      "outputs": [
        {
          "internalType": "address",
          "name": "",
          "type": "address"
        }
      ],
      "stateMutability": "view",
      "type": "function"
    },
    {
      "inputs": [],
      "name": "expiration",
      "outputs": [
        {
          "internalType": "uint256",
          "name": "",
          "type": "uint256"
        }
      ],
      "stateMutability": "view",
      "type": "function"
    },
    {
      "inputs": [
        {
          "internalType": "address",
          "name": "userAddress",
          "type": "address"
        }
      ],
      "name": "hasAddressClaimed",
      "outputs": [
        {
          "internalType": "bool",
          "name": "",
          "type": "bool"
        }
      ],
      "stateMutability": "view",
      "type": "function"
    },
    {
      "inputs": [
        {
          "internalType": "bytes32",
          "name": "uHash",
          "type": "bytes32"
        }
      ],
      "name": "hasUserClaimed",
      "outputs": [
        {
          "internalType": "bool",
          "name": "",
          "type": "bool"
        }
      ],
      "stateMutability": "view",
      "type": "function"
    },
    {
      "inputs": [],
      "name": "maxClaims",
      "outputs": [
        {
          "internalType": "uint256",
          "name": "",
          "type": "uint256"
        }
      ],
      "stateMutability": "view",
      "type": "function"
    },
    {
      "inputs": [],
      "name": "metadataIpfsHash",
      "outputs": [
        {
          "internalType": "string",
          "name": "",
          "type": "string"
        }
      ],
      "stateMutability": "view",
      "type": "function"
    },
    {
      "inputs": [],
      "name": "owner",
      "outputs": [
        {
          "internalType": "address",
          "name": "",
          "type": "address"
        }
      ],
      "stateMutability": "view",
      "type": "function"
    },
    {
      "inputs": [],
      "name": "renounceOwnership",
      "outputs": [],
      "stateMutability": "nonpayable",
      "type": "function"
    },
    {
      "inputs": [
        {
          "internalType": "uint256",
          "name": "_amount",
          "type": "uint256"
        }
      ],
      "name": "stake",
      "outputs": [],
      "stateMutability": "nonpayable",
      "type": "function"
    },
    {
      "inputs": [],
      "name": "stop",
      "outputs": [],
      "stateMutability": "nonpayable",
      "type": "function"
    },
    {
      "inputs": [],
      "name": "stopped",
      "outputs": [
        {
          "internalType": "bool",
          "name": "",
          "type": "bool"
        }
      ],
      "stateMutability": "view",
      "type": "function"
    },
    {
      "inputs": [],
      "name": "token",
      "outputs": [
        {
          "internalType": "address",
          "name": "",
          "type": "address"
        }
      ],
      "stateMutability": "view",
      "type": "function"
    },
    {
      "inputs": [
        {
          "internalType": "address",
          "name": "newOwner",
          "type": "address"
        }
      ],
      "name": "transferOwnership",
      "outputs": [],
      "stateMutability": "nonpayable",
      "type": "function"
    },
    {
      "inputs": [
        {
          "internalType": "string",
          "name": "_metadataIpfsHash",
          "type": "string"
        }
      ],
      "name": "updateMetadata",
      "outputs": [],
      "stateMutability": "nonpayable",
      "type": "function"
    },
    {
      "inputs": [
        {
          "internalType": "bytes32",
          "name": "zkPassTaskId",
          "type": "bytes32"
        },
        {
          "internalType": "address",
          "name": "validator",
          "type": "address"
        },
        {
          "internalType": "bytes",
          "name": "allocatorSig",
          "type": "bytes"
        }
      ],
      "name": "verifyAllocatorSignature",
      "outputs": [
        {
          "internalType": "bool",
          "name": "",
          "type": "bool"
        }
      ],
      "stateMutability": "view",
      "type": "function"
    },
    {
      "inputs": [
        {
          "internalType": "address",
          "name": "recipient",
          "type": "address"
        },
        {
          "internalType": "address",
          "name": "ephemeralKey",
          "type": "address"
        },
        {
          "internalType": "bytes",
          "name": "ephemeralSig",
          "type": "bytes"
        }
      ],
      "name": "verifyEphemeralSignature",
      "outputs": [
        {
          "internalType": "bool",
          "name": "",
          "type": "bool"
        }
      ],
      "stateMutability": "pure",
      "type": "function"
    },
    {
      "inputs": [
        {
          "internalType": "bytes32",
          "name": "zkPassTaskId",
          "type": "bytes32"
        },
        {
          "internalType": "bytes32",
          "name": "uHash",
          "type": "bytes32"
        },
        {
          "internalType": "bytes32",
          "name": "publicFieldsHash",
          "type": "bytes32"
        },
        {
          "internalType": "address",
          "name": "webproofRecipientAddress",
          "type": "address"
        },
        {
          "internalType": "address",
          "name": "validator",
          "type": "address"
        },
        {
          "internalType": "bytes",
          "name": "validatorSig",
          "type": "bytes"
        }
      ],
      "name": "verifyValidatorSignature",
      "outputs": [
        {
          "internalType": "bool",
          "name": "",
          "type": "bool"
        }
      ],
      "stateMutability": "view",
      "type": "function"
    },
    {
      "inputs": [],
      "name": "zkPassSchemaId",
      "outputs": [
        {
          "internalType": "bytes32",
          "name": "",
          "type": "bytes32"
        }
      ],
      "stateMutability": "view",
      "type": "function"
    }
  ],
  "bytecode": "0x6101606040523480156200001257600080fd5b506040516200364c3803806200364c833981810160405281019062000038919062000544565b620000586200004c6200015060201b60201c565b6200015860201b60201c565b8773ffffffffffffffffffffffffffffffffffffffff1660808173ffffffffffffffffffffffffffffffffffffffff16815250508660a081815250508560c081815250508460e081815250508361010081815250508260039080519060200190620000c59291906200021c565b508173ffffffffffffffffffffffffffffffffffffffff166101408173ffffffffffffffffffffffffffffffffffffffff16815250508073ffffffffffffffffffffffffffffffffffffffff166101208173ffffffffffffffffffffffffffffffffffffffff168152505062000141896200015860201b60201c565b505050505050505050620006a7565b600033905090565b60008060009054906101000a900473ffffffffffffffffffffffffffffffffffffffff169050816000806101000a81548173ffffffffffffffffffffffffffffffffffffffff021916908373ffffffffffffffffffffffffffffffffffffffff1602179055508173ffffffffffffffffffffffffffffffffffffffff168173ffffffffffffffffffffffffffffffffffffffff167f8be0079c531659141344cd1fd0a4f28419497f9722a3daafe3b4186f6b6457e060405160405180910390a35050565b8280546200022a9062000671565b90600052602060002090601f0160209004810192826200024e57600085556200029a565b82601f106200026957805160ff19168380011785556200029a565b828001600101855582156200029a579182015b82811115620002995782518255916020019190600101906200027c565b5b509050620002a99190620002ad565b5090565b5b80821115620002c8576000816000905550600101620002ae565b5090565b6000604051905090565b600080fd5b600080fd5b600073ffffffffffffffffffffffffffffffffffffffff82169050919050565b60006200030d82620002e0565b9050919050565b6200031f8162000300565b81146200032b57600080fd5b50565b6000815190506200033f8162000314565b92915050565b6000819050919050565b6200035a8162000345565b81146200036657600080fd5b50565b6000815190506200037a816200034f565b92915050565b6000819050919050565b620003958162000380565b8114620003a157600080fd5b50565b600081519050620003b5816200038a565b92915050565b600080fd5b600080fd5b6000601f19601f8301169050919050565b7f4e487b7100000000000000000000000000000000000000000000000000000000600052604160045260246000fd5b6200041082620003c5565b810181811067ffffffffffffffff82111715620004325762000431620003d6565b5b80604052505050565b600062000447620002cc565b905062000455828262000405565b919050565b600067ffffffffffffffff821115620004785762000477620003d6565b5b6200048382620003c5565b9050602081019050919050565b60005b83811015620004b057808201518184015260208101905062000493565b83811115620004c0576000848401525b50505050565b6000620004dd620004d7846200045a565b6200043b565b905082815260208101848484011115620004fc57620004fb620003c0565b5b6200050984828562000490565b509392505050565b600082601f830112620005295762000528620003bb565b5b81516200053b848260208601620004c6565b91505092915050565b60008060008060008060008060006101208a8c0312156200056a5762000569620002d6565b5b60006200057a8c828d016200032e565b99505060206200058d8c828d016200032e565b9850506040620005a08c828d0162000369565b9750506060620005b38c828d0162000369565b9650506080620005c68c828d01620003a4565b95505060a0620005d98c828d0162000369565b94505060c08a015167ffffffffffffffff811115620005fd57620005fc620002db565b5b6200060b8c828d0162000511565b93505060e06200061e8c828d016200032e565b925050610100620006328c828d016200032e565b9150509295985092959850929598565b7f4e487b7100000000000000000000000000000000000000000000000000000000600052602260045260246000fd5b600060028204905060018216806200068a57607f821691505b60208210811415620006a157620006a062000642565b5b50919050565b60805160a05160c05160e051610100516101205161014051612ee16200076b600039600081816105b20152610c7301526000818161082d015281816108d101528181610f620152818161107b015261113e015260008181610ae701528181610db201528181610ebd01526112d701526000818161054201528181610b9a0152610d0d01526000818161111401526114270152600081816110ba01526115fb0152600081816106a00152818161073c0152818161120601526115be0152612ee16000f3fe608060405234801561001057600080fd5b50600436106101a95760003560e01c8063832e3f88116100f9578063cf47debc11610097578063e7c81d7a11610071578063e7c81d7a146104ae578063f1429a96146104cc578063f2fde38b146104fc578063fc0c546a14610518576101a9565b8063cf47debc14610442578063cf5380b414610472578063dcc59b6f14610490576101a9565b8063918b5be1116100d3578063918b5be1146103bc578063a694fc3a146103d8578063aa8c217c146103f4578063bf6d218d14610412576101a9565b8063832e3f881461035057806384515a44146103805780638da5cb5b1461039e576101a9565b80634665096d11610166578063715018a611610140578063715018a6146102da57806375f12b21146102e45780637794f07e1461030257806379f80f7414610320576101a9565b80634665096d1461025c5780634fb745af1461027a57806357421f1a146102aa576101a9565b806303337282146101ae578063037837d5146101cc57806304c3704d146101fc57806307da68f514610218578063306292fe1461022257806337e58fca14610240575b600080fd5b6101b6610536565b6040516101c39190611bba565b60405180910390f35b6101e660048036038101906101e19190611dc3565b61053c565b6040516101f39190611e4d565b60405180910390f35b61021660048036038101906102119190611e68565b61060b565b005b610220610629565b005b61022a6109e4565b6040516102379190611fb5565b60405180910390f35b61025a60048036038101906102559190611fd7565b610a72565b005b610264610ae5565b6040516102719190611bba565b60405180910390f35b610294600480360381019061028f91906120f5565b610b09565b6040516102a19190611e4d565b60405180910390f35b6102c460048036038101906102bf9190612164565b610b94565b6040516102d19190611e4d565b60405180910390f35b6102e2610c4a565b005b6102ec610c5e565b6040516102f99190611e4d565b60405180910390f35b61030a610c71565b604051610317919061221c565b60405180910390f35b61033a60048036038101906103359190612237565b610c95565b6040516103479190611e4d565b60405180910390f35b61036a60048036038101906103659190612264565b610cb5565b6040516103779190611e4d565b60405180910390f35b610388610d0b565b60405161039591906122a0565b60405180910390f35b6103a6610d2f565b6040516103b3919061221c565b60405180910390f35b6103d660048036038101906103d1919061235c565b610d58565b005b6103f260048036038101906103ed91906123d1565b610e63565b005b6103fc6110b8565b6040516104099190611bba565b60405180910390f35b61042c60048036038101906104279190612237565b6110dc565b6040516104399190611e4d565b60405180910390f35b61045c60048036038101906104579190612264565b611106565b604051610469919061221c565b60405180910390f35b61047a611112565b6040516104879190611bba565b60405180910390f35b610498611136565b6040516104a59190611bba565b60405180910390f35b6104b661113c565b6040516104c3919061221c565b60405180910390f35b6104e660048036038101906104e19190612264565b611160565b6040516104f39190611e4d565b60405180910390f35b61051660048036038101906105119190612264565b611180565b005b610520611204565b60405161052d919061221c565b60405180910390f35b60015481565b600080847f000000000000000000000000000000000000000000000000000000000000000085604051602001610574939291906123fe565b604051602081830303815290604052905060006105978280519060200120611228565b905060006105ae858361125e90919063ffffffff16565b90507f000000000000000000000000000000000000000000000000000000000000000073ffffffffffffffffffffffffffffffffffffffff168173ffffffffffffffffffffffffffffffffffffffff161493505050509392505050565b60003390506106208787878785868989611285565b50505050505050565b610631611711565b600460009054906101000a900460ff1615610681576040517f08c379a000000000000000000000000000000000000000000000000000000000815260040161067890612481565b60405180910390fd5b6001600460006101000a81548160ff02191690831515021790555060007f000000000000000000000000000000000000000000000000000000000000000073ffffffffffffffffffffffffffffffffffffffff166370a08231306040518263ffffffff1660e01b81526004016106f7919061221c565b602060405180830381865afa158015610714573d6000803e3d6000fd5b505050506040513d601f19601f8201168201806040525081019061073891906124b6565b90507f000000000000000000000000000000000000000000000000000000000000000073ffffffffffffffffffffffffffffffffffffffff1663a9059cbb61077e610d2f565b836040518363ffffffff1660e01b815260040161079c9291906124e3565b6020604051808303816000875af11580156107bb573d6000803e3d6000fd5b505050506040513d601f19601f820116820180604052508101906107df9190612538565b61081e576040517f08c379a0000000000000000000000000000000000000000000000000000000008152600401610815906125b1565b60405180910390fd5b600060015411156109b55760007f000000000000000000000000000000000000000000000000000000000000000073ffffffffffffffffffffffffffffffffffffffff166370a08231306040518263ffffffff1660e01b8152600401610884919061221c565b602060405180830381865afa1580156108a1573d6000803e3d6000fd5b505050506040513d601f19601f820116820180604052508101906108c591906124b6565b905060006001819055507f000000000000000000000000000000000000000000000000000000000000000073ffffffffffffffffffffffffffffffffffffffff1663a9059cbb610913610d2f565b836040518363ffffffff1660e01b81526004016109319291906124e3565b6020604051808303816000875af1158015610950573d6000803e3d6000fd5b505050506040513d601f19601f820116820180604052508101906109749190612538565b6109b3576040517f08c379a00000000000000000000000000000000000000000000000000000000081526004016109aa9061261d565b60405180910390fd5b505b7f7acc84e34091ae817647a4c49116f5cc07f319078ba80f8f5fde37ea7e25cbd660405160405180910390a150565b600380546109f19061266c565b80601f0160208091040260200160405190810160405280929190818152602001828054610a1d9061266c565b8015610a6a5780601f10610a3f57610100808354040283529160200191610a6a565b820191906000526020600020905b815481529060010190602001808311610a4d57829003601f168201915b505050505081565b6000610a7d85611106565b9050610a8a868686610b09565b610ac9576040517f08c379a0000000000000000000000000000000000000000000000000000000008152600401610ac0906126ea565b60405180910390fd5b610ad98a8a8a8a8a868989611285565b50505050505050505050565b7f000000000000000000000000000000000000000000000000000000000000000081565b60008084604051602001610b1d919061221c565b60405160208183030381529060405290506000610b408280519060200120611228565b90506000610b57858361125e90919063ffffffff16565b90508573ffffffffffffffffffffffffffffffffffffffff168173ffffffffffffffffffffffffffffffffffffffff161493505050509392505050565b600080877f0000000000000000000000000000000000000000000000000000000000000000888888604051602001610bd095949392919061270a565b60405160208183030381529060405290506000610bf38280519060200120611228565b90506000610c0a858361125e90919063ffffffff16565b90508573ffffffffffffffffffffffffffffffffffffffff168173ffffffffffffffffffffffffffffffffffffffff161493505050509695505050505050565b610c52611711565b610c5c600061178f565b565b600460009054906101000a900460ff1681565b7f000000000000000000000000000000000000000000000000000000000000000081565b60056020528060005260406000206000915054906101000a900460ff1681565b6000600660008373ffffffffffffffffffffffffffffffffffffffff1673ffffffffffffffffffffffffffffffffffffffff16815260200190815260200160002060009054906101000a900460ff169050919050565b7f000000000000000000000000000000000000000000000000000000000000000081565b60008060009054906101000a900473ffffffffffffffffffffffffffffffffffffffff16905090565b610d60611711565b600460009054906101000a900460ff1615610db0576040517f08c379a0000000000000000000000000000000000000000000000000000000008152600401610da790612481565b60405180910390fd5b7f00000000000000000000000000000000000000000000000000000000000000004210610e12576040517f08c379a0000000000000000000000000000000000000000000000000000000008152600401610e09906127a9565b60405180910390fd5b8060039080519060200190610e28929190611afe565b507f1c306e70c05992619e2128ad1ef88df75f36c9476282e59f51401b2abaa42e4e81604051610e589190611fb5565b60405180910390a150565b610e6b611711565b600460009054906101000a900460ff1615610ebb576040517f08c379a0000000000000000000000000000000000000000000000000000000008152600401610eb290612481565b60405180910390fd5b7f00000000000000000000000000000000000000000000000000000000000000004210610f1d576040517f08c379a0000000000000000000000000000000000000000000000000000000008152600401610f14906127a9565b60405180910390fd5b60008111610f60576040517f08c379a0000000000000000000000000000000000000000000000000000000008152600401610f579061283b565b60405180910390fd5b7f000000000000000000000000000000000000000000000000000000000000000073ffffffffffffffffffffffffffffffffffffffff166323b872dd3330846040518463ffffffff1660e01b8152600401610fbd9392919061285b565b6020604051808303816000875af1158015610fdc573d6000803e3d6000fd5b505050506040513d601f19601f820116820180604052508101906110009190612538565b61103f576040517f08c379a00000000000000000000000000000000000000000000000000000000081526004016110369061261d565b60405180910390fd5b806001600082825461105191906128c1565b925050819055507f75efb2dbfa8702e48013d6069b763368afaef74542a160687988df3967df92427f0000000000000000000000000000000000000000000000000000000000000000826001546040516110ad93929190612917565b60405180910390a150565b7f000000000000000000000000000000000000000000000000000000000000000081565b60006005600083815260200190815260200160002060009054906101000a900460ff169050919050565b60008130189050919050565b7f000000000000000000000000000000000000000000000000000000000000000081565b60025481565b7f000000000000000000000000000000000000000000000000000000000000000081565b60066020528060005260406000206000915054906101000a900460ff1681565b611188611711565b600073ffffffffffffffffffffffffffffffffffffffff168173ffffffffffffffffffffffffffffffffffffffff1614156111f8576040517f08c379a00000000000000000000000000000000000000000000000000000000081526004016111ef906129c0565b60405180910390fd5b6112018161178f565b50565b7f000000000000000000000000000000000000000000000000000000000000000081565b60007f19457468657265756d205369676e6564204d6573736167653a0a33320000000060005281601c52603c6000209050919050565b600080600061126d8585611853565b9150915061127a816118a5565b819250505092915050565b600460009054906101000a900460ff16156112d5576040517f08c379a00000000000000000000000000000000000000000000000000000000081526004016112cc90612481565b60405180910390fd5b7f00000000000000000000000000000000000000000000000000000000000000004210611337576040517f08c379a000000000000000000000000000000000000000000000000000000000815260040161132e906127a9565b60405180910390fd5b6005600087815260200190815260200160002060009054906101000a900460ff1615611398576040517f08c379a000000000000000000000000000000000000000000000000000000000815260040161138f90612a2c565b60405180910390fd5b600660008573ffffffffffffffffffffffffffffffffffffffff1673ffffffffffffffffffffffffffffffffffffffff16815260200190815260200160002060009054906101000a900460ff1615611425576040517f08c379a000000000000000000000000000000000000000000000000000000000815260040161141c90612a98565b60405180910390fd5b7f000000000000000000000000000000000000000000000000000000000000000060025410611489576040517f08c379a000000000000000000000000000000000000000000000000000000000815260040161148090612b04565b60405180910390fd5b61149488888461053c565b6114d3576040517f08c379a00000000000000000000000000000000000000000000000000000000081526004016114ca90612b70565b60405180910390fd5b6114e1888787868b86610b94565b611520576040517f08c379a000000000000000000000000000000000000000000000000000000000815260040161151790612bdc565b60405180910390fd5b60016005600088815260200190815260200160002060006101000a81548160ff0219169083151502179055506001600660008673ffffffffffffffffffffffffffffffffffffffff1673ffffffffffffffffffffffffffffffffffffffff16815260200190815260200160002060006101000a81548160ff021916908315150217905550600260008154809291906115b790612bfc565b91905055507f000000000000000000000000000000000000000000000000000000000000000073ffffffffffffffffffffffffffffffffffffffff1663a9059cbb857f00000000000000000000000000000000000000000000000000000000000000006040518363ffffffff1660e01b81526004016116379291906124e3565b6020604051808303816000875af1158015611656573d6000803e3d6000fd5b505050506040513d601f19601f8201168201806040525081019061167a9190612538565b6116b9576040517f08c379a00000000000000000000000000000000000000000000000000000000081526004016116b0906125b1565b60405180910390fd5b8373ffffffffffffffffffffffffffffffffffffffff167f91d697238e9aa9f3172d17522c9be529b94a892481554e1ea619369b5b12f39a876040516116ff91906122a0565b60405180910390a25050505050505050565b611719611a13565b73ffffffffffffffffffffffffffffffffffffffff16611737610d2f565b73ffffffffffffffffffffffffffffffffffffffff161461178d576040517f08c379a000000000000000000000000000000000000000000000000000000000815260040161178490612c91565b60405180910390fd5b565b60008060009054906101000a900473ffffffffffffffffffffffffffffffffffffffff169050816000806101000a81548173ffffffffffffffffffffffffffffffffffffffff021916908373ffffffffffffffffffffffffffffffffffffffff1602179055508173ffffffffffffffffffffffffffffffffffffffff168173ffffffffffffffffffffffffffffffffffffffff167f8be0079c531659141344cd1fd0a4f28419497f9722a3daafe3b4186f6b6457e060405160405180910390a35050565b6000806041835114156118955760008060006020860151925060408601519150606086015160001a905061188987828585611a1b565b9450945050505061189e565b60006002915091505b9250929050565b600060048111156118b9576118b8612cb1565b5b8160048111156118cc576118cb612cb1565b5b14156118d757611a10565b600160048111156118eb576118ea612cb1565b5b8160048111156118fe576118fd612cb1565b5b141561193f576040517f08c379a000000000000000000000000000000000000000000000000000000000815260040161193690612d2c565b60405180910390fd5b6002600481111561195357611952612cb1565b5b81600481111561196657611965612cb1565b5b14156119a7576040517f08c379a000000000000000000000000000000000000000000000000000000000815260040161199e90612d98565b60405180910390fd5b600360048111156119bb576119ba612cb1565b5b8160048111156119ce576119cd612cb1565b5b1415611a0f576040517f08c379a0000000000000000000000000000000000000000000000000000000008152600401611a0690612e2a565b60405180910390fd5b5b50565b600033905090565b6000807f7fffffffffffffffffffffffffffffff5d576e7357a4501ddfe92f46681b20a08360001c1115611a56576000600391509150611af5565b600060018787878760405160008152602001604052604051611a7b9493929190612e66565b6020604051602081039080840390855afa158015611a9d573d6000803e3d6000fd5b505050602060405103519050600073ffffffffffffffffffffffffffffffffffffffff168173ffffffffffffffffffffffffffffffffffffffff161415611aec57600060019250925050611af5565b80600092509250505b94509492505050565b828054611b0a9061266c565b90600052602060002090601f016020900481019282611b2c5760008555611b73565b82601f10611b4557805160ff1916838001178555611b73565b82800160010185558215611b73579182015b82811115611b72578251825591602001919060010190611b57565b5b509050611b809190611b84565b5090565b5b80821115611b9d576000816000905550600101611b85565b5090565b6000819050919050565b611bb481611ba1565b82525050565b6000602082019050611bcf6000830184611bab565b92915050565b6000604051905090565b600080fd5b600080fd5b6000819050919050565b611bfc81611be9565b8114611c0757600080fd5b50565b600081359050611c1981611bf3565b92915050565b600073ffffffffffffffffffffffffffffffffffffffff82169050919050565b6000611c4a82611c1f565b9050919050565b611c5a81611c3f565b8114611c6557600080fd5b50565b600081359050611c7781611c51565b92915050565b600080fd5b600080fd5b6000601f19601f8301169050919050565b7f4e487b7100000000000000000000000000000000000000000000000000000000600052604160045260246000fd5b611cd082611c87565b810181811067ffffffffffffffff82111715611cef57611cee611c98565b5b80604052505050565b6000611d02611bd5565b9050611d0e8282611cc7565b919050565b600067ffffffffffffffff821115611d2e57611d2d611c98565b5b611d3782611c87565b9050602081019050919050565b82818337600083830152505050565b6000611d66611d6184611d13565b611cf8565b905082815260208101848484011115611d8257611d81611c82565b5b611d8d848285611d44565b509392505050565b600082601f830112611daa57611da9611c7d565b5b8135611dba848260208601611d53565b91505092915050565b600080600060608486031215611ddc57611ddb611bdf565b5b6000611dea86828701611c0a565b9350506020611dfb86828701611c68565b925050604084013567ffffffffffffffff811115611e1c57611e1b611be4565b5b611e2886828701611d95565b9150509250925092565b60008115159050919050565b611e4781611e32565b82525050565b6000602082019050611e626000830184611e3e565b92915050565b60008060008060008060c08789031215611e8557611e84611bdf565b5b6000611e9389828a01611c0a565b9650506020611ea489828a01611c68565b9550506040611eb589828a01611c0a565b9450506060611ec689828a01611c0a565b935050608087013567ffffffffffffffff811115611ee757611ee6611be4565b5b611ef389828a01611d95565b92505060a087013567ffffffffffffffff811115611f1457611f13611be4565b5b611f2089828a01611d95565b9150509295509295509295565b600081519050919050565b600082825260208201905092915050565b60005b83811015611f67578082015181840152602081019050611f4c565b83811115611f76576000848401525b50505050565b6000611f8782611f2d565b611f918185611f38565b9350611fa1818560208601611f49565b611faa81611c87565b840191505092915050565b60006020820190508181036000830152611fcf8184611f7c565b905092915050565b60008060008060008060008060006101208a8c031215611ffa57611ff9611bdf565b5b60006120088c828d01611c0a565b99505060206120198c828d01611c68565b985050604061202a8c828d01611c0a565b975050606061203b8c828d01611c0a565b965050608061204c8c828d01611c68565b95505060a061205d8c828d01611c68565b94505060c08a013567ffffffffffffffff81111561207e5761207d611be4565b5b61208a8c828d01611d95565b93505060e08a013567ffffffffffffffff8111156120ab576120aa611be4565b5b6120b78c828d01611d95565b9250506101008a013567ffffffffffffffff8111156120d9576120d8611be4565b5b6120e58c828d01611d95565b9150509295985092959850929598565b60008060006060848603121561210e5761210d611bdf565b5b600061211c86828701611c68565b935050602061212d86828701611c68565b925050604084013567ffffffffffffffff81111561214e5761214d611be4565b5b61215a86828701611d95565b9150509250925092565b60008060008060008060c0878903121561218157612180611bdf565b5b600061218f89828a01611c0a565b96505060206121a089828a01611c0a565b95505060406121b189828a01611c0a565b94505060606121c289828a01611c68565b93505060806121d389828a01611c68565b92505060a087013567ffffffffffffffff8111156121f4576121f3611be4565b5b61220089828a01611d95565b9150509295509295509295565b61221681611c3f565b82525050565b6000602082019050612231600083018461220d565b92915050565b60006020828403121561224d5761224c611bdf565b5b600061225b84828501611c0a565b91505092915050565b60006020828403121561227a57612279611bdf565b5b600061228884828501611c68565b91505092915050565b61229a81611be9565b82525050565b60006020820190506122b56000830184612291565b92915050565b600067ffffffffffffffff8211156122d6576122d5611c98565b5b6122df82611c87565b9050602081019050919050565b60006122ff6122fa846122bb565b611cf8565b90508281526020810184848401111561231b5761231a611c82565b5b612326848285611d44565b509392505050565b600082601f83011261234357612342611c7d565b5b81356123538482602086016122ec565b91505092915050565b60006020828403121561237257612371611bdf565b5b600082013567ffffffffffffffff8111156123905761238f611be4565b5b61239c8482850161232e565b91505092915050565b6123ae81611ba1565b81146123b957600080fd5b50565b6000813590506123cb816123a5565b92915050565b6000602082840312156123e7576123e6611bdf565b5b60006123f5848285016123bc565b91505092915050565b60006060820190506124136000830186612291565b6124206020830185612291565b61242d604083018461220d565b949350505050565b7f43616d706169676e2073746f7070656400000000000000000000000000000000600082015250565b600061246b601083611f38565b915061247682612435565b602082019050919050565b6000602082019050818103600083015261249a8161245e565b9050919050565b6000815190506124b0816123a5565b92915050565b6000602082840312156124cc576124cb611bdf565b5b60006124da848285016124a1565b91505092915050565b60006040820190506124f8600083018561220d565b6125056020830184611bab565b9392505050565b61251581611e32565b811461252057600080fd5b50565b6000815190506125328161250c565b92915050565b60006020828403121561254e5761254d611bdf565b5b600061255c84828501612523565b91505092915050565b7f546f6b656e207472616e73666572206661696c65640000000000000000000000600082015250565b600061259b601583611f38565b91506125a682612565565b602082019050919050565b600060208201905081810360008301526125ca8161258e565b9050919050565b7f4272696e6720746f6b656e207472616e73666572206661696c65640000000000600082015250565b6000612607601b83611f38565b9150612612826125d1565b602082019050919050565b60006020820190508181036000830152612636816125fa565b9050919050565b7f4e487b7100000000000000000000000000000000000000000000000000000000600052602260045260246000fd5b6000600282049050600182168061268457607f821691505b602082108114156126985761269761263d565b5b50919050565b7f496e76616c696420657068656d6572616c206b6579207369676e617475726500600082015250565b60006126d4601f83611f38565b91506126df8261269e565b602082019050919050565b60006020820190508181036000830152612703816126c7565b9050919050565b600060a08201905061271f6000830188612291565b61272c6020830187612291565b6127396040830186612291565b6127466060830185612291565b612753608083018461220d565b9695505050505050565b7f44726f7020686173206578706972656400000000000000000000000000000000600082015250565b6000612793601083611f38565b915061279e8261275d565b602082019050919050565b600060208201905081810360008301526127c281612786565b9050919050565b7f5374616b6520616d6f756e74206d75737420626520677265617465722074686160008201527f6e207a65726f0000000000000000000000000000000000000000000000000000602082015250565b6000612825602683611f38565b9150612830826127c9565b604082019050919050565b6000602082019050818103600083015261285481612818565b9050919050565b6000606082019050612870600083018661220d565b61287d602083018561220d565b61288a6040830184611bab565b949350505050565b7f4e487b7100000000000000000000000000000000000000000000000000000000600052601160045260246000fd5b60006128cc82611ba1565b91506128d783611ba1565b9250827fffffffffffffffffffffffffffffffffffffffffffffffffffffffffffffffff0382111561290c5761290b612892565b5b828201905092915050565b600060608201905061292c600083018661220d565b6129396020830185611bab565b6129466040830184611bab565b949350505050565b7f4f776e61626c653a206e6577206f776e657220697320746865207a65726f206160008201527f6464726573730000000000000000000000000000000000000000000000000000602082015250565b60006129aa602683611f38565b91506129b58261294e565b604082019050919050565b600060208201905081810360008301526129d98161299d565b9050919050565b7f55736572202875486173682920616c726561647920636c61696d656400000000600082015250565b6000612a16601c83611f38565b9150612a21826129e0565b602082019050919050565b60006020820190508181036000830152612a4581612a09565b9050919050565b7f55736572206164647265737320616c726561647920636c61696d656400000000600082015250565b6000612a82601c83611f38565b9150612a8d82612a4c565b602082019050919050565b60006020820190508181036000830152612ab181612a75565b9050919050565b7f416c6c20636c61696d7320657868617573746564000000000000000000000000600082015250565b6000612aee601483611f38565b9150612af982612ab8565b602082019050919050565b60006020820190508181036000830152612b1d81612ae1565b9050919050565b7f496e76616c696420616c6c6f6361746f72207369676e61747572650000000000600082015250565b6000612b5a601b83611f38565b9150612b6582612b24565b602082019050919050565b60006020820190508181036000830152612b8981612b4d565b9050919050565b7f496e76616c69642076616c696461746f72207369676e61747572650000000000600082015250565b6000612bc6601b83611f38565b9150612bd182612b90565b602082019050919050565b60006020820190508181036000830152612bf581612bb9565b9050919050565b6000612c0782611ba1565b91507fffffffffffffffffffffffffffffffffffffffffffffffffffffffffffffffff821415612c3a57612c39612892565b5b600182019050919050565b7f4f776e61626c653a2063616c6c6572206973206e6f7420746865206f776e6572600082015250565b6000612c7b602083611f38565b9150612c8682612c45565b602082019050919050565b60006020820190508181036000830152612caa81612c6e565b9050919050565b7f4e487b7100000000000000000000000000000000000000000000000000000000600052602160045260246000fd5b7f45434453413a20696e76616c6964207369676e61747572650000000000000000600082015250565b6000612d16601883611f38565b9150612d2182612ce0565b602082019050919050565b60006020820190508181036000830152612d4581612d09565b9050919050565b7f45434453413a20696e76616c6964207369676e6174757265206c656e67746800600082015250565b6000612d82601f83611f38565b9150612d8d82612d4c565b602082019050919050565b60006020820190508181036000830152612db181612d75565b9050919050565b7f45434453413a20696e76616c6964207369676e6174757265202773272076616c60008201527f7565000000000000000000000000000000000000000000000000000000000000602082015250565b6000612e14602283611f38565b9150612e1f82612db8565b604082019050919050565b60006020820190508181036000830152612e4381612e07565b9050919050565b600060ff82169050919050565b612e6081612e4a565b82525050565b6000608082019050612e7b6000830187612291565b612e886020830186612e57565b612e956040830185612291565b612ea26060830184612291565b9594505050505056fea26469706673582212203ffa8e9061ca384b8fa7f54ef9cf9bef101cc3359fb5f2c89d06c2a8aba0123664736f6c634300080a0033",
  "linkReferences": {},
  "deployedLinkReferences": {}
}