{
  "_format": "hh-sol-artifact-1",
  "contractName": "DropFactory",
  "sourceName": "contracts/DropFactory.sol",
  "abi": [
    {
      "inputs": [
        {
          "internalType": "uint256",
          "name": "_fee",
          "type": "uint256"
        },
        {
          "internalType": "address",
          "name": "_feeRecipient",
          "type": "address"
        },
        {
          "internalType": "address",
          "name": "_zkPassAllocator",
          "type": "address"
        },
        {
          "internalType": "address",
          "name": "_bringToken",
          "type": "address"
        }
      ],
      "stateMutability": "nonpayable",
      "type": "constructor"
    },
    {
      "anonymous": false,
      "inputs": [
        {
          "indexed": true,
          "internalType": "address",
          "name": "creator",
          "type": "address"
        },
        {
          "indexed": true,
          "internalType": "address",
          "name": "drop",
          "type": "address"
        },
        {
          "indexed": true,
          "internalType": "address",
          "name": "token",
          "type": "address"
        },
        {
          "indexed": false,
          "internalType": "uint256",
          "name": "amount",
          "type": "uint256"
        },
        {
          "indexed": false,
          "internalType": "uint256",
          "name": "maxClaims",
          "type": "uint256"
        },
        {
          "indexed": false,
          "internalType": "bytes32",
          "name": "zkPassSchemaId",
          "type": "bytes32"
        },
        {
          "indexed": false,
          "internalType": "uint256",
          "name": "expiration",
          "type": "uint256"
        },
        {
          "indexed": false,
          "internalType": "string",
          "name": "metadataIpfsHash",
          "type": "string"
        }
      ],
      "name": "DropCreated",
      "type": "event"
    },
    {
      "anonymous": false,
      "inputs": [
        {
          "indexed": false,
          "internalType": "address",
          "name": "newFeeRecipient",
          "type": "address"
        }
      ],
      "name": "FeeRecipientUpdated",
      "type": "event"
    },
    {
      "anonymous": false,
      "inputs": [
        {
          "indexed": false,
          "internalType": "uint256",
          "name": "newFee",
          "type": "uint256"
        }
      ],
      "name": "FeeUpdated",
      "type": "event"
    },
    {
      "anonymous": false,
      "inputs": [
        {
          "indexed": true,
          "internalType": "address",
          "name": "previousOwner",
          "type": "address"
        },
        {
          "indexed": true,
          "internalType": "address",
          "name": "newOwner",
          "type": "address"
        }
      ],
      "name": "OwnershipTransferred",
      "type": "event"
    },
    {
      "inputs": [],
      "name": "BRING_TOKEN",
      "outputs": [
        {
          "internalType": "address",
          "name": "",
          "type": "address"
        }
      ],
      "stateMutability": "view",
      "type": "function"
    },
    {
      "inputs": [],
      "name": "ZK_PASS_ALLOCATOR_ADDRESS",
      "outputs": [
        {
          "internalType": "address",
          "name": "",
          "type": "address"
        }
      ],
      "stateMutability": "view",
      "type": "function"
    },
    {
      "inputs": [
        {
          "internalType": "address",
          "name": "token",
          "type": "address"
        },
        {
          "internalType": "uint256",
          "name": "amount",
          "type": "uint256"
        },
        {
          "internalType": "uint256",
          "name": "maxClaims",
          "type": "uint256"
        },
        {
          "internalType": "bytes32",
          "name": "zkPassSchemaId",
          "type": "bytes32"
        },
        {
          "internalType": "uint256",
          "name": "expiration",
          "type": "uint256"
        },
        {
          "internalType": "string",
          "name": "metadataIpfsHash",
          "type": "string"
        }
      ],
      "name": "createDrop",
      "outputs": [
        {
          "internalType": "address",
          "name": "dropAddress",
          "type": "address"
        }
      ],
      "stateMutability": "nonpayable",
      "type": "function"
    },
    {
      "inputs": [],
      "name": "fee",
      "outputs": [
        {
          "internalType": "uint256",
          "name": "",
          "type": "uint256"
        }
      ],
      "stateMutability": "view",
      "type": "function"
    },
    {
      "inputs": [],
      "name": "feeRecipient",
      "outputs": [
        {
          "internalType": "address",
          "name": "",
          "type": "address"
        }
      ],
      "stateMutability": "view",
      "type": "function"
    },
    {
      "inputs": [],
      "name": "owner",
      "outputs": [
        {
          "internalType": "address",
          "name": "",
          "type": "address"
        }
      ],
      "stateMutability": "view",
      "type": "function"
    },
    {
      "inputs": [],
      "name": "renounceOwnership",
      "outputs": [],
      "stateMutability": "nonpayable",
      "type": "function"
    },
    {
      "inputs": [
        {
          "internalType": "address",
          "name": "newOwner",
          "type": "address"
        }
      ],
      "name": "transferOwnership",
      "outputs": [],
      "stateMutability": "nonpayable",
      "type": "function"
    },
    {
      "inputs": [
        {
          "internalType": "uint256",
          "name": "_fee",
          "type": "uint256"
        }
      ],
      "name": "updateFee",
      "outputs": [],
      "stateMutability": "nonpayable",
      "type": "function"
    },
    {
      "inputs": [
        {
          "internalType": "address",
          "name": "_feeRecipient",
          "type": "address"
        }
      ],
      "name": "updateFeeRecipient",
      "outputs": [],
      "stateMutability": "nonpayable",
      "type": "function"
    }
  ],
  "bytecode": "0x60c06040523480156200001157600080fd5b506040516200498138038062004981833981810160405281019062000037919062000282565b620000576200004b6200011160201b60201c565b6200011960201b60201c565b8360018190555082600260006101000a81548173ffffffffffffffffffffffffffffffffffffffff021916908373ffffffffffffffffffffffffffffffffffffffff1602179055508173ffffffffffffffffffffffffffffffffffffffff1660808173ffffffffffffffffffffffffffffffffffffffff16815250508073ffffffffffffffffffffffffffffffffffffffff1660a08173ffffffffffffffffffffffffffffffffffffffff168152505050505050620002f4565b600033905090565b60008060009054906101000a900473ffffffffffffffffffffffffffffffffffffffff169050816000806101000a81548173ffffffffffffffffffffffffffffffffffffffff021916908373ffffffffffffffffffffffffffffffffffffffff1602179055508173ffffffffffffffffffffffffffffffffffffffff168173ffffffffffffffffffffffffffffffffffffffff167f8be0079c531659141344cd1fd0a4f28419497f9722a3daafe3b4186f6b6457e060405160405180910390a35050565b600080fd5b6000819050919050565b620001f781620001e2565b81146200020357600080fd5b50565b6000815190506200021781620001ec565b92915050565b600073ffffffffffffffffffffffffffffffffffffffff82169050919050565b60006200024a826200021d565b9050919050565b6200025c816200023d565b81146200026857600080fd5b50565b6000815190506200027c8162000251565b92915050565b600080600080608085870312156200029f576200029e620001dd565b5b6000620002af8782880162000206565b9450506020620002c2878288016200026b565b9350506040620002d5878288016200026b565b9250506060620002e8878288016200026b565b91505092959194509250565b60805160a051614659620003286000396000818161039a01526106bc01526000818161023d015261037901526146596000f3fe60806040523480156200001157600080fd5b5060043610620000ac5760003560e01c80639012c4a8116200006f5780639012c4a81462000159578063ddca3f431462000179578063e7c81d7a146200019b578063f160d36914620001bd578063f2fde38b14620001dd57620000ac565b80634690484014620000b1578063715018a614620000d35780637794f07e14620000df5780638bb32fb114620001015780638da5cb5b1462000137575b600080fd5b620000bb620001fd565b604051620000ca919062000994565b60405180910390f35b620000dd62000223565b005b620000e96200023b565b604051620000f8919062000994565b60405180910390f35b6200011f600480360381019062000119919062000bce565b6200025f565b6040516200012e919062000994565b60405180910390f35b620001416200063e565b60405162000150919062000994565b60405180910390f35b62000177600480360381019062000171919062000c89565b62000667565b005b62000183620006b4565b60405162000192919062000ccc565b60405180910390f35b620001a5620006ba565b604051620001b4919062000994565b60405180910390f35b620001db6004803603810190620001d5919062000ce9565b620006de565b005b620001fb6004803603810190620001f5919062000ce9565b62000765565b005b600260009054906101000a900473ffffffffffffffffffffffffffffffffffffffff1681565b6200022d620007f0565b62000239600062000875565b565b7f000000000000000000000000000000000000000000000000000000000000000081565b600080858762000270919062000d4a565b905060006127106001548362000287919062000d4a565b62000293919062000dda565b905060008183620002a5919062000e12565b90508973ffffffffffffffffffffffffffffffffffffffff166323b872dd3330846040518463ffffffff1660e01b8152600401620002e69392919062000e6f565b6020604051808303816000875af115801562000306573d6000803e3d6000fd5b505050506040513d601f19601f820116820180604052508101906200032c919062000ee9565b6200036e576040517f08c379a0000000000000000000000000000000000000000000000000000000008152600401620003659062000f7c565b60405180910390fd5b6000338b8b8b8b8b8b7f00000000000000000000000000000000000000000000000000000000000000007f0000000000000000000000000000000000000000000000000000000000000000604051620003c79062000941565b620003db9998979695949392919062001031565b604051809103906000f080158015620003f8573d6000803e3d6000fd5b5090508094508a73ffffffffffffffffffffffffffffffffffffffff1663a9059cbb600260009054906101000a900473ffffffffffffffffffffffffffffffffffffffff16856040518363ffffffff1660e01b81526004016200045d929190620010d7565b6020604051808303816000875af11580156200047d573d6000803e3d6000fd5b505050506040513d601f19601f82011682018060405250810190620004a3919062000ee9565b620004e5576040517f08c379a0000000000000000000000000000000000000000000000000000000008152600401620004dc9062001154565b60405180910390fd5b8a73ffffffffffffffffffffffffffffffffffffffff1663a9059cbb86866040518363ffffffff1660e01b815260040162000522929190620010d7565b6020604051808303816000875af115801562000542573d6000803e3d6000fd5b505050506040513d601f19601f8201168201806040525081019062000568919062000ee9565b620005aa576040517f08c379a0000000000000000000000000000000000000000000000000000000008152600401620005a190620011c6565b60405180910390fd5b8a73ffffffffffffffffffffffffffffffffffffffff168573ffffffffffffffffffffffffffffffffffffffff163373ffffffffffffffffffffffffffffffffffffffff167facfe749a64ed9f9833b14f33fb3a99035a30761277b551ed1a4cd685512199538d8d8d8d8d60405162000628959493929190620011e8565b60405180910390a4505050509695505050505050565b60008060009054906101000a900473ffffffffffffffffffffffffffffffffffffffff16905090565b62000671620007f0565b806001819055507f8c4d35e54a3f2ef1134138fd8ea3daee6a3c89e10d2665996babdf70261e2c7681604051620006a9919062000ccc565b60405180910390a150565b60015481565b7f000000000000000000000000000000000000000000000000000000000000000081565b620006e8620007f0565b80600260006101000a81548173ffffffffffffffffffffffffffffffffffffffff021916908373ffffffffffffffffffffffffffffffffffffffff1602179055507f7a7b5a0a132f9e0581eb8527f66eae9ee89c2a3e79d4ac7e41a1f1f4d48a7fc2816040516200075a919062000994565b60405180910390a150565b6200076f620007f0565b600073ffffffffffffffffffffffffffffffffffffffff168173ffffffffffffffffffffffffffffffffffffffff161415620007e2576040517f08c379a0000000000000000000000000000000000000000000000000000000008152600401620007d990620012c2565b60405180910390fd5b620007ed8162000875565b50565b620007fa62000939565b73ffffffffffffffffffffffffffffffffffffffff166200081a6200063e565b73ffffffffffffffffffffffffffffffffffffffff161462000873576040517f08c379a00000000000000000000000000000000000000000000000000000000081526004016200086a9062001334565b60405180910390fd5b565b60008060009054906101000a900473ffffffffffffffffffffffffffffffffffffffff169050816000806101000a81548173ffffffffffffffffffffffffffffffffffffffff021916908373ffffffffffffffffffffffffffffffffffffffff1602179055508173ffffffffffffffffffffffffffffffffffffffff168173ffffffffffffffffffffffffffffffffffffffff167f8be0079c531659141344cd1fd0a4f28419497f9722a3daafe3b4186f6b6457e060405160405180910390a35050565b600033905090565b6132cd806200135783390190565b600073ffffffffffffffffffffffffffffffffffffffff82169050919050565b60006200097c826200094f565b9050919050565b6200098e816200096f565b82525050565b6000602082019050620009ab600083018462000983565b92915050565b6000604051905090565b600080fd5b600080fd5b620009d0816200096f565b8114620009dc57600080fd5b50565b600081359050620009f081620009c5565b92915050565b6000819050919050565b62000a0b81620009f6565b811462000a1757600080fd5b50565b60008135905062000a2b8162000a00565b92915050565b6000819050919050565b62000a468162000a31565b811462000a5257600080fd5b50565b60008135905062000a668162000a3b565b92915050565b600080fd5b600080fd5b6000601f19601f8301169050919050565b7f4e487b7100000000000000000000000000000000000000000000000000000000600052604160045260246000fd5b62000ac18262000a76565b810181811067ffffffffffffffff8211171562000ae35762000ae262000a87565b5b80604052505050565b600062000af8620009b1565b905062000b06828262000ab6565b919050565b600067ffffffffffffffff82111562000b295762000b2862000a87565b5b62000b348262000a76565b9050602081019050919050565b82818337600083830152505050565b600062000b6762000b618462000b0b565b62000aec565b90508281526020810184848401111562000b865762000b8562000a71565b5b62000b9384828562000b41565b509392505050565b600082601f83011262000bb35762000bb262000a6c565b5b813562000bc584826020860162000b50565b91505092915050565b60008060008060008060c0878903121562000bee5762000bed620009bb565b5b600062000bfe89828a01620009df565b965050602062000c1189828a0162000a1a565b955050604062000c2489828a0162000a1a565b945050606062000c3789828a0162000a55565b935050608062000c4a89828a0162000a1a565b92505060a087013567ffffffffffffffff81111562000c6e5762000c6d620009c0565b5b62000c7c89828a0162000b9b565b9150509295509295509295565b60006020828403121562000ca25762000ca1620009bb565b5b600062000cb28482850162000a1a565b91505092915050565b62000cc681620009f6565b82525050565b600060208201905062000ce3600083018462000cbb565b92915050565b60006020828403121562000d025762000d01620009bb565b5b600062000d1284828501620009df565b91505092915050565b7f4e487b7100000000000000000000000000000000000000000000000000000000600052601160045260246000fd5b600062000d5782620009f6565b915062000d6483620009f6565b9250817fffffffffffffffffffffffffffffffffffffffffffffffffffffffffffffffff048311821515161562000da05762000d9f62000d1b565b5b828202905092915050565b7f4e487b7100000000000000000000000000000000000000000000000000000000600052601260045260246000fd5b600062000de782620009f6565b915062000df483620009f6565b92508262000e075762000e0662000dab565b5b828204905092915050565b600062000e1f82620009f6565b915062000e2c83620009f6565b9250827fffffffffffffffffffffffffffffffffffffffffffffffffffffffffffffffff0382111562000e645762000e6362000d1b565b5b828201905092915050565b600060608201905062000e86600083018662000983565b62000e95602083018562000983565b62000ea4604083018462000cbb565b949350505050565b60008115159050919050565b62000ec38162000eac565b811462000ecf57600080fd5b50565b60008151905062000ee38162000eb8565b92915050565b60006020828403121562000f025762000f01620009bb565b5b600062000f128482850162000ed2565b91505092915050565b600082825260208201905092915050565b7f546f6b656e207472616e7366657220746f20666163746f7279206661696c6564600082015250565b600062000f6460208362000f1b565b915062000f718262000f2c565b602082019050919050565b6000602082019050818103600083015262000f978162000f55565b9050919050565b62000fa98162000a31565b82525050565b600081519050919050565b60005b8381101562000fda57808201518184015260208101905062000fbd565b8381111562000fea576000848401525b50505050565b600062000ffd8262000faf565b62001009818562000f1b565b93506200101b81856020860162000fba565b620010268162000a76565b840191505092915050565b60006101208201905062001049600083018c62000983565b62001058602083018b62000983565b62001067604083018a62000cbb565b62001076606083018962000cbb565b62001085608083018862000f9e565b6200109460a083018762000cbb565b81810360c0830152620010a8818662000ff0565b9050620010b960e083018562000983565b620010c961010083018462000983565b9a9950505050505050505050565b6000604082019050620010ee600083018562000983565b620010fd602083018462000cbb565b9392505050565b7f466565207472616e73666572206661696c656400000000000000000000000000600082015250565b60006200113c60138362000f1b565b9150620011498262001104565b602082019050919050565b600060208201905081810360008301526200116f816200112d565b9050919050565b7f546f6b656e207472616e7366657220746f2064726f70206661696c6564000000600082015250565b6000620011ae601d8362000f1b565b9150620011bb8262001176565b602082019050919050565b60006020820190508181036000830152620011e1816200119f565b9050919050565b600060a082019050620011ff600083018862000cbb565b6200120e602083018762000cbb565b6200121d604083018662000f9e565b6200122c606083018562000cbb565b818103608083015262001240818462000ff0565b90509695505050505050565b7f4f776e61626c653a206e6577206f776e657220697320746865207a65726f206160008201527f6464726573730000000000000000000000000000000000000000000000000000602082015250565b6000620012aa60268362000f1b565b9150620012b7826200124c565b604082019050919050565b60006020820190508181036000830152620012dd816200129b565b9050919050565b7f4f776e61626c653a2063616c6c6572206973206e6f7420746865206f776e6572600082015250565b60006200131c60208362000f1b565b91506200132982620012e4565b602082019050919050565b600060208201905081810360008301526200134f816200130d565b905091905056fe6101606040523480156200001257600080fd5b50604051620032cd380380620032cd833981810160405281019062000038919062000544565b620000586200004c6200015060201b60201c565b6200015860201b60201c565b8773ffffffffffffffffffffffffffffffffffffffff1660808173ffffffffffffffffffffffffffffffffffffffff16815250508660a081815250508560c081815250508460e081815250508361010081815250508260039080519060200190620000c59291906200021c565b508173ffffffffffffffffffffffffffffffffffffffff166101408173ffffffffffffffffffffffffffffffffffffffff16815250508073ffffffffffffffffffffffffffffffffffffffff166101208173ffffffffffffffffffffffffffffffffffffffff168152505062000141896200015860201b60201c565b505050505050505050620006a7565b600033905090565b60008060009054906101000a900473ffffffffffffffffffffffffffffffffffffffff169050816000806101000a81548173ffffffffffffffffffffffffffffffffffffffff021916908373ffffffffffffffffffffffffffffffffffffffff1602179055508173ffffffffffffffffffffffffffffffffffffffff168173ffffffffffffffffffffffffffffffffffffffff167f8be0079c531659141344cd1fd0a4f28419497f9722a3daafe3b4186f6b6457e060405160405180910390a35050565b8280546200022a9062000671565b90600052602060002090601f0160209004810192826200024e57600085556200029a565b82601f106200026957805160ff19168380011785556200029a565b828001600101855582156200029a579182015b82811115620002995782518255916020019190600101906200027c565b5b509050620002a99190620002ad565b5090565b5b80821115620002c8576000816000905550600101620002ae565b5090565b6000604051905090565b600080fd5b600080fd5b600073ffffffffffffffffffffffffffffffffffffffff82169050919050565b60006200030d82620002e0565b9050919050565b6200031f8162000300565b81146200032b57600080fd5b50565b6000815190506200033f8162000314565b92915050565b6000819050919050565b6200035a8162000345565b81146200036657600080fd5b50565b6000815190506200037a816200034f565b92915050565b6000819050919050565b620003958162000380565b8114620003a157600080fd5b50565b600081519050620003b5816200038a565b92915050565b600080fd5b600080fd5b6000601f19601f8301169050919050565b7f4e487b7100000000000000000000000000000000000000000000000000000000600052604160045260246000fd5b6200041082620003c5565b810181811067ffffffffffffffff82111715620004325762000431620003d6565b5b80604052505050565b600062000447620002cc565b905062000455828262000405565b919050565b600067ffffffffffffffff821115620004785762000477620003d6565b5b6200048382620003c5565b9050602081019050919050565b60005b83811015620004b057808201518184015260208101905062000493565b83811115620004c0576000848401525b50505050565b6000620004dd620004d7846200045a565b6200043b565b905082815260208101848484011115620004fc57620004fb620003c0565b5b6200050984828562000490565b509392505050565b600082601f830112620005295762000528620003bb565b5b81516200053b848260208601620004c6565b91505092915050565b60008060008060008060008060006101208a8c0312156200056a5762000569620002d6565b5b60006200057a8c828d016200032e565b99505060206200058d8c828d016200032e565b9850506040620005a08c828d0162000369565b9750506060620005b38c828d0162000369565b9650506080620005c68c828d01620003a4565b95505060a0620005d98c828d0162000369565b94505060c08a015167ffffffffffffffff811115620005fd57620005fc620002db565b5b6200060b8c828d0162000511565b93505060e06200061e8c828d016200032e565b925050610100620006328c828d016200032e565b9150509295985092959850929598565b7f4e487b7100000000000000000000000000000000000000000000000000000000600052602260045260246000fd5b600060028204905060018216806200068a57607f821691505b60208210811415620006a157620006a062000642565b5b50919050565b60805160a05160c05160e051610100516101205161014051612b706200075d6000396000818161051c0152610bdd0152600081816107970152818161083b01528181610d4201528181610e5b0152610f3e015260008181610a5101526110b70152600081816104ac01528181610b040152610c01015260008181610f14015261117a015260008181610e9a01526112f601526000818161060a015281816106a601528181610fe601526112b90152612b706000f3fe608060405234801561001057600080fd5b50600436106101735760003560e01c806384515a44116100de578063cc3c0f0611610097578063dcc59b6f11610071578063dcc59b6f1461042a578063e7c81d7a14610448578063f2fde38b14610466578063fc0c546a1461048257610173565b8063cc3c0f06146103ac578063cf47debc146103dc578063cf5380b41461040c57610173565b806384515a44146102ea5780638da5cb5b14610308578063918b5be114610326578063a694fc3a14610342578063aa8c217c1461035e578063b89c39521461037c57610173565b80634665096d116101305780634665096d146102265780634fb745af1461024457806357421f1a14610274578063715018a6146102a457806375f12b21146102ae5780637794f07e146102cc57610173565b80630333728214610178578063037837d51461019657806304c3704d146101c657806307da68f5146101e2578063306292fe146101ec57806337e58fca1461020a575b600080fd5b6101806104a0565b60405161018d91906118b5565b60405180910390f35b6101b060048036038101906101ab9190611abe565b6104a6565b6040516101bd9190611b48565b60405180910390f35b6101e060048036038101906101db9190611b63565b610575565b005b6101ea610593565b005b6101f461094e565b6040516102019190611cb0565b60405180910390f35b610224600480360381019061021f9190611cd2565b6109dc565b005b61022e610a4f565b60405161023b91906118b5565b60405180910390f35b61025e60048036038101906102599190611df0565b610a73565b60405161026b9190611b48565b60405180910390f35b61028e60048036038101906102899190611e5f565b610afe565b60405161029b9190611b48565b60405180910390f35b6102ac610bb4565b005b6102b6610bc8565b6040516102c39190611b48565b60405180910390f35b6102d4610bdb565b6040516102e19190611f17565b60405180910390f35b6102f2610bff565b6040516102ff9190611f41565b60405180910390f35b610310610c23565b60405161031d9190611f17565b60405180910390f35b610340600480360381019061033b9190611ffd565b610c4c565b005b61035c60048036038101906103579190612072565b610ca5565b005b610366610e98565b60405161037391906118b5565b60405180910390f35b6103966004803603810190610391919061209f565b610ebc565b6040516103a39190611b48565b60405180910390f35b6103c660048036038101906103c1919061209f565b610ee6565b6040516103d39190611b48565b60405180910390f35b6103f660048036038101906103f191906120cc565b610f06565b6040516104039190611f17565b60405180910390f35b610414610f12565b60405161042191906118b5565b60405180910390f35b610432610f36565b60405161043f91906118b5565b60405180910390f35b610450610f3c565b60405161045d9190611f17565b60405180910390f35b610480600480360381019061047b91906120cc565b610f60565b005b61048a610fe4565b6040516104979190611f17565b60405180910390f35b60015481565b600080847f0000000000000000000000000000000000000000000000000000000000000000856040516020016104de939291906120f9565b604051602081830303815290604052905060006105018280519060200120611008565b90506000610518858361103e90919063ffffffff16565b90507f000000000000000000000000000000000000000000000000000000000000000073ffffffffffffffffffffffffffffffffffffffff168173ffffffffffffffffffffffffffffffffffffffff161493505050509392505050565b600033905061058a8787878785868989611065565b50505050505050565b61059b61140c565b600460009054906101000a900460ff16156105eb576040517f08c379a00000000000000000000000000000000000000000000000000000000081526004016105e29061217c565b60405180910390fd5b6001600460006101000a81548160ff02191690831515021790555060007f000000000000000000000000000000000000000000000000000000000000000073ffffffffffffffffffffffffffffffffffffffff166370a08231306040518263ffffffff1660e01b81526004016106619190611f17565b602060405180830381865afa15801561067e573d6000803e3d6000fd5b505050506040513d601f19601f820116820180604052508101906106a291906121b1565b90507f000000000000000000000000000000000000000000000000000000000000000073ffffffffffffffffffffffffffffffffffffffff1663a9059cbb6106e8610c23565b836040518363ffffffff1660e01b81526004016107069291906121de565b6020604051808303816000875af1158015610725573d6000803e3d6000fd5b505050506040513d601f19601f820116820180604052508101906107499190612233565b610788576040517f08c379a000000000000000000000000000000000000000000000000000000000815260040161077f906122ac565b60405180910390fd5b6000600154111561091f5760007f000000000000000000000000000000000000000000000000000000000000000073ffffffffffffffffffffffffffffffffffffffff166370a08231306040518263ffffffff1660e01b81526004016107ee9190611f17565b602060405180830381865afa15801561080b573d6000803e3d6000fd5b505050506040513d601f19601f8201168201806040525081019061082f91906121b1565b905060006001819055507f000000000000000000000000000000000000000000000000000000000000000073ffffffffffffffffffffffffffffffffffffffff1663a9059cbb61087d610c23565b836040518363ffffffff1660e01b815260040161089b9291906121de565b6020604051808303816000875af11580156108ba573d6000803e3d6000fd5b505050506040513d601f19601f820116820180604052508101906108de9190612233565b61091d576040517f08c379a000000000000000000000000000000000000000000000000000000000815260040161091490612318565b60405180910390fd5b505b7f7acc84e34091ae817647a4c49116f5cc07f319078ba80f8f5fde37ea7e25cbd660405160405180910390a150565b6003805461095b90612367565b80601f016020809104026020016040519081016040528092919081815260200182805461098790612367565b80156109d45780601f106109a9576101008083540402835291602001916109d4565b820191906000526020600020905b8154815290600101906020018083116109b757829003601f168201915b505050505081565b60006109e785610f06565b90506109f4868686610a73565b610a33576040517f08c379a0000000000000000000000000000000000000000000000000000000008152600401610a2a906123e5565b60405180910390fd5b610a438a8a8a8a8a868989611065565b50505050505050505050565b7f000000000000000000000000000000000000000000000000000000000000000081565b60008084604051602001610a879190611f17565b60405160208183030381529060405290506000610aaa8280519060200120611008565b90506000610ac1858361103e90919063ffffffff16565b90508573ffffffffffffffffffffffffffffffffffffffff168173ffffffffffffffffffffffffffffffffffffffff161493505050509392505050565b600080877f0000000000000000000000000000000000000000000000000000000000000000888888604051602001610b3a959493929190612405565b60405160208183030381529060405290506000610b5d8280519060200120611008565b90506000610b74858361103e90919063ffffffff16565b90508573ffffffffffffffffffffffffffffffffffffffff168173ffffffffffffffffffffffffffffffffffffffff161493505050509695505050505050565b610bbc61140c565b610bc6600061148a565b565b600460009054906101000a900460ff1681565b7f000000000000000000000000000000000000000000000000000000000000000081565b7f000000000000000000000000000000000000000000000000000000000000000081565b60008060009054906101000a900473ffffffffffffffffffffffffffffffffffffffff16905090565b610c5461140c565b8060039080519060200190610c6a9291906117f9565b507f1c306e70c05992619e2128ad1ef88df75f36c9476282e59f51401b2abaa42e4e81604051610c9a9190611cb0565b60405180910390a150565b610cad61140c565b600460009054906101000a900460ff1615610cfd576040517f08c379a0000000000000000000000000000000000000000000000000000000008152600401610cf49061217c565b60405180910390fd5b60008111610d40576040517f08c379a0000000000000000000000000000000000000000000000000000000008152600401610d37906124ca565b60405180910390fd5b7f000000000000000000000000000000000000000000000000000000000000000073ffffffffffffffffffffffffffffffffffffffff166323b872dd3330846040518463ffffffff1660e01b8152600401610d9d939291906124ea565b6020604051808303816000875af1158015610dbc573d6000803e3d6000fd5b505050506040513d601f19601f82011682018060405250810190610de09190612233565b610e1f576040517f08c379a0000000000000000000000000000000000000000000000000000000008152600401610e1690612318565b60405180910390fd5b8060016000828254610e319190612550565b925050819055507f75efb2dbfa8702e48013d6069b763368afaef74542a160687988df3967df92427f000000000000000000000000000000000000000000000000000000000000000082600154604051610e8d939291906125a6565b60405180910390a150565b7f000000000000000000000000000000000000000000000000000000000000000081565b60006005600083815260200190815260200160002060009054906101000a900460ff169050919050565b60056020528060005260406000206000915054906101000a900460ff1681565b60008130189050919050565b7f000000000000000000000000000000000000000000000000000000000000000081565b60025481565b7f000000000000000000000000000000000000000000000000000000000000000081565b610f6861140c565b600073ffffffffffffffffffffffffffffffffffffffff168173ffffffffffffffffffffffffffffffffffffffff161415610fd8576040517f08c379a0000000000000000000000000000000000000000000000000000000008152600401610fcf9061264f565b60405180910390fd5b610fe18161148a565b50565b7f000000000000000000000000000000000000000000000000000000000000000081565b60007f19457468657265756d205369676e6564204d6573736167653a0a33320000000060005281601c52603c6000209050919050565b600080600061104d858561154e565b9150915061105a816115a0565b819250505092915050565b600460009054906101000a900460ff16156110b5576040517f08c379a00000000000000000000000000000000000000000000000000000000081526004016110ac9061217c565b60405180910390fd5b7f00000000000000000000000000000000000000000000000000000000000000004210611117576040517f08c379a000000000000000000000000000000000000000000000000000000000815260040161110e906126bb565b60405180910390fd5b6005600087815260200190815260200160002060009054906101000a900460ff1615611178576040517f08c379a000000000000000000000000000000000000000000000000000000000815260040161116f90612727565b60405180910390fd5b7f0000000000000000000000000000000000000000000000000000000000000000600254106111dc576040517f08c379a00000000000000000000000000000000000000000000000000000000081526004016111d390612793565b60405180910390fd5b6111e78888846104a6565b611226576040517f08c379a000000000000000000000000000000000000000000000000000000000815260040161121d906127ff565b60405180910390fd5b611234888787868b86610afe565b611273576040517f08c379a000000000000000000000000000000000000000000000000000000000815260040161126a9061286b565b60405180910390fd5b60016005600088815260200190815260200160002060006101000a81548160ff021916908315150217905550600260008154809291906112b29061288b565b91905055507f000000000000000000000000000000000000000000000000000000000000000073ffffffffffffffffffffffffffffffffffffffff1663a9059cbb857f00000000000000000000000000000000000000000000000000000000000000006040518363ffffffff1660e01b81526004016113329291906121de565b6020604051808303816000875af1158015611351573d6000803e3d6000fd5b505050506040513d601f19601f820116820180604052508101906113759190612233565b6113b4576040517f08c379a00000000000000000000000000000000000000000000000000000000081526004016113ab906122ac565b60405180910390fd5b8373ffffffffffffffffffffffffffffffffffffffff167f91d697238e9aa9f3172d17522c9be529b94a892481554e1ea619369b5b12f39a876040516113fa9190611f41565b60405180910390a25050505050505050565b61141461170e565b73ffffffffffffffffffffffffffffffffffffffff16611432610c23565b73ffffffffffffffffffffffffffffffffffffffff1614611488576040517f08c379a000000000000000000000000000000000000000000000000000000000815260040161147f90612920565b60405180910390fd5b565b60008060009054906101000a900473ffffffffffffffffffffffffffffffffffffffff169050816000806101000a81548173ffffffffffffffffffffffffffffffffffffffff021916908373ffffffffffffffffffffffffffffffffffffffff1602179055508173ffffffffffffffffffffffffffffffffffffffff168173ffffffffffffffffffffffffffffffffffffffff167f8be0079c531659141344cd1fd0a4f28419497f9722a3daafe3b4186f6b6457e060405160405180910390a35050565b6000806041835114156115905760008060006020860151925060408601519150606086015160001a905061158487828585611716565b94509450505050611599565b60006002915091505b9250929050565b600060048111156115b4576115b3612940565b5b8160048111156115c7576115c6612940565b5b14156115d25761170b565b600160048111156115e6576115e5612940565b5b8160048111156115f9576115f8612940565b5b141561163a576040517f08c379a0000000000000000000000000000000000000000000000000000000008152600401611631906129bb565b60405180910390fd5b6002600481111561164e5761164d612940565b5b81600481111561166157611660612940565b5b14156116a2576040517f08c379a000000000000000000000000000000000000000000000000000000000815260040161169990612a27565b60405180910390fd5b600360048111156116b6576116b5612940565b5b8160048111156116c9576116c8612940565b5b141561170a576040517f08c379a000000000000000000000000000000000000000000000000000000000815260040161170190612ab9565b60405180910390fd5b5b50565b600033905090565b6000807f7fffffffffffffffffffffffffffffff5d576e7357a4501ddfe92f46681b20a08360001c11156117515760006003915091506117f0565b6000600187878787604051600081526020016040526040516117769493929190612af5565b6020604051602081039080840390855afa158015611798573d6000803e3d6000fd5b505050602060405103519050600073ffffffffffffffffffffffffffffffffffffffff168173ffffffffffffffffffffffffffffffffffffffff1614156117e7576000600192509250506117f0565b80600092509250505b94509492505050565b82805461180590612367565b90600052602060002090601f016020900481019282611827576000855561186e565b82601f1061184057805160ff191683800117855561186e565b8280016001018555821561186e579182015b8281111561186d578251825591602001919060010190611852565b5b50905061187b919061187f565b5090565b5b80821115611898576000816000905550600101611880565b5090565b6000819050919050565b6118af8161189c565b82525050565b60006020820190506118ca60008301846118a6565b92915050565b6000604051905090565b600080fd5b600080fd5b6000819050919050565b6118f7816118e4565b811461190257600080fd5b50565b600081359050611914816118ee565b92915050565b600073ffffffffffffffffffffffffffffffffffffffff82169050919050565b60006119458261191a565b9050919050565b6119558161193a565b811461196057600080fd5b50565b6000813590506119728161194c565b92915050565b600080fd5b600080fd5b6000601f19601f8301169050919050565b7f4e487b7100000000000000000000000000000000000000000000000000000000600052604160045260246000fd5b6119cb82611982565b810181811067ffffffffffffffff821117156119ea576119e9611993565b5b80604052505050565b60006119fd6118d0565b9050611a0982826119c2565b919050565b600067ffffffffffffffff821115611a2957611a28611993565b5b611a3282611982565b9050602081019050919050565b82818337600083830152505050565b6000611a61611a5c84611a0e565b6119f3565b905082815260208101848484011115611a7d57611a7c61197d565b5b611a88848285611a3f565b509392505050565b600082601f830112611aa557611aa4611978565b5b8135611ab5848260208601611a4e565b91505092915050565b600080600060608486031215611ad757611ad66118da565b5b6000611ae586828701611905565b9350506020611af686828701611963565b925050604084013567ffffffffffffffff811115611b1757611b166118df565b5b611b2386828701611a90565b9150509250925092565b60008115159050919050565b611b4281611b2d565b82525050565b6000602082019050611b5d6000830184611b39565b92915050565b60008060008060008060c08789031215611b8057611b7f6118da565b5b6000611b8e89828a01611905565b9650506020611b9f89828a01611963565b9550506040611bb089828a01611905565b9450506060611bc189828a01611905565b935050608087013567ffffffffffffffff811115611be257611be16118df565b5b611bee89828a01611a90565b92505060a087013567ffffffffffffffff811115611c0f57611c0e6118df565b5b611c1b89828a01611a90565b9150509295509295509295565b600081519050919050565b600082825260208201905092915050565b60005b83811015611c62578082015181840152602081019050611c47565b83811115611c71576000848401525b50505050565b6000611c8282611c28565b611c8c8185611c33565b9350611c9c818560208601611c44565b611ca581611982565b840191505092915050565b60006020820190508181036000830152611cca8184611c77565b905092915050565b60008060008060008060008060006101208a8c031215611cf557611cf46118da565b5b6000611d038c828d01611905565b9950506020611d148c828d01611963565b9850506040611d258c828d01611905565b9750506060611d368c828d01611905565b9650506080611d478c828d01611963565b95505060a0611d588c828d01611963565b94505060c08a013567ffffffffffffffff811115611d7957611d786118df565b5b611d858c828d01611a90565b93505060e08a013567ffffffffffffffff811115611da657611da56118df565b5b611db28c828d01611a90565b9250506101008a013567ffffffffffffffff811115611dd457611dd36118df565b5b611de08c828d01611a90565b9150509295985092959850929598565b600080600060608486031215611e0957611e086118da565b5b6000611e1786828701611963565b9350506020611e2886828701611963565b925050604084013567ffffffffffffffff811115611e4957611e486118df565b5b611e5586828701611a90565b9150509250925092565b60008060008060008060c08789031215611e7c57611e7b6118da565b5b6000611e8a89828a01611905565b9650506020611e9b89828a01611905565b9550506040611eac89828a01611905565b9450506060611ebd89828a01611963565b9350506080611ece89828a01611963565b92505060a087013567ffffffffffffffff811115611eef57611eee6118df565b5b611efb89828a01611a90565b9150509295509295509295565b611f118161193a565b82525050565b6000602082019050611f2c6000830184611f08565b92915050565b611f3b816118e4565b82525050565b6000602082019050611f566000830184611f32565b92915050565b600067ffffffffffffffff821115611f7757611f76611993565b5b611f8082611982565b9050602081019050919050565b6000611fa0611f9b84611f5c565b6119f3565b905082815260208101848484011115611fbc57611fbb61197d565b5b611fc7848285611a3f565b509392505050565b600082601f830112611fe457611fe3611978565b5b8135611ff4848260208601611f8d565b91505092915050565b600060208284031215612013576120126118da565b5b600082013567ffffffffffffffff811115612031576120306118df565b5b61203d84828501611fcf565b91505092915050565b61204f8161189c565b811461205a57600080fd5b50565b60008135905061206c81612046565b92915050565b600060208284031215612088576120876118da565b5b60006120968482850161205d565b91505092915050565b6000602082840312156120b5576120b46118da565b5b60006120c384828501611905565b91505092915050565b6000602082840312156120e2576120e16118da565b5b60006120f084828501611963565b91505092915050565b600060608201905061210e6000830186611f32565b61211b6020830185611f32565b6121286040830184611f08565b949350505050565b7f43616d706169676e2073746f7070656400000000000000000000000000000000600082015250565b6000612166601083611c33565b915061217182612130565b602082019050919050565b6000602082019050818103600083015261219581612159565b9050919050565b6000815190506121ab81612046565b92915050565b6000602082840312156121c7576121c66118da565b5b60006121d58482850161219c565b91505092915050565b60006040820190506121f36000830185611f08565b61220060208301846118a6565b9392505050565b61221081611b2d565b811461221b57600080fd5b50565b60008151905061222d81612207565b92915050565b600060208284031215612249576122486118da565b5b60006122578482850161221e565b91505092915050565b7f546f6b656e207472616e73666572206661696c65640000000000000000000000600082015250565b6000612296601583611c33565b91506122a182612260565b602082019050919050565b600060208201905081810360008301526122c581612289565b9050919050565b7f4272696e6720746f6b656e207472616e73666572206661696c65640000000000600082015250565b6000612302601b83611c33565b915061230d826122cc565b602082019050919050565b60006020820190508181036000830152612331816122f5565b9050919050565b7f4e487b7100000000000000000000000000000000000000000000000000000000600052602260045260246000fd5b6000600282049050600182168061237f57607f821691505b6020821081141561239357612392612338565b5b50919050565b7f496e76616c696420657068656d6572616c206b6579207369676e617475726500600082015250565b60006123cf601f83611c33565b91506123da82612399565b602082019050919050565b600060208201905081810360008301526123fe816123c2565b9050919050565b600060a08201905061241a6000830188611f32565b6124276020830187611f32565b6124346040830186611f32565b6124416060830185611f32565b61244e6080830184611f08565b9695505050505050565b7f5374616b6520616d6f756e74206d75737420626520677265617465722074686160008201527f6e207a65726f0000000000000000000000000000000000000000000000000000602082015250565b60006124b4602683611c33565b91506124bf82612458565b604082019050919050565b600060208201905081810360008301526124e3816124a7565b9050919050565b60006060820190506124ff6000830186611f08565b61250c6020830185611f08565b61251960408301846118a6565b949350505050565b7f4e487b7100000000000000000000000000000000000000000000000000000000600052601160045260246000fd5b600061255b8261189c565b91506125668361189c565b9250827fffffffffffffffffffffffffffffffffffffffffffffffffffffffffffffffff0382111561259b5761259a612521565b5b828201905092915050565b60006060820190506125bb6000830186611f08565b6125c860208301856118a6565b6125d560408301846118a6565b949350505050565b7f4f776e61626c653a206e6577206f776e657220697320746865207a65726f206160008201527f6464726573730000000000000000000000000000000000000000000000000000602082015250565b6000612639602683611c33565b9150612644826125dd565b604082019050919050565b600060208201905081810360008301526126688161262c565b9050919050565b7f44726f7020686173206578706972656400000000000000000000000000000000600082015250565b60006126a5601083611c33565b91506126b08261266f565b602082019050919050565b600060208201905081810360008301526126d481612698565b9050919050565b7f416c726561647920636c61696d65640000000000000000000000000000000000600082015250565b6000612711600f83611c33565b915061271c826126db565b602082019050919050565b6000602082019050818103600083015261274081612704565b9050919050565b7f416c6c20636c61696d7320657868617573746564000000000000000000000000600082015250565b600061277d601483611c33565b915061278882612747565b602082019050919050565b600060208201905081810360008301526127ac81612770565b9050919050565b7f496e76616c696420616c6c6f6361746f72207369676e61747572650000000000600082015250565b60006127e9601b83611c33565b91506127f4826127b3565b602082019050919050565b60006020820190508181036000830152612818816127dc565b9050919050565b7f496e76616c69642076616c696461746f72207369676e61747572650000000000600082015250565b6000612855601b83611c33565b91506128608261281f565b602082019050919050565b6000602082019050818103600083015261288481612848565b9050919050565b60006128968261189c565b91507fffffffffffffffffffffffffffffffffffffffffffffffffffffffffffffffff8214156128c9576128c8612521565b5b600182019050919050565b7f4f776e61626c653a2063616c6c6572206973206e6f7420746865206f776e6572600082015250565b600061290a602083611c33565b9150612915826128d4565b602082019050919050565b60006020820190508181036000830152612939816128fd565b9050919050565b7f4e487b7100000000000000000000000000000000000000000000000000000000600052602160045260246000fd5b7f45434453413a20696e76616c6964207369676e61747572650000000000000000600082015250565b60006129a5601883611c33565b91506129b08261296f565b602082019050919050565b600060208201905081810360008301526129d481612998565b9050919050565b7f45434453413a20696e76616c6964207369676e6174757265206c656e67746800600082015250565b6000612a11601f83611c33565b9150612a1c826129db565b602082019050919050565b60006020820190508181036000830152612a4081612a04565b9050919050565b7f45434453413a20696e76616c6964207369676e6174757265202773272076616c60008201527f7565000000000000000000000000000000000000000000000000000000000000602082015250565b6000612aa3602283611c33565b9150612aae82612a47565b604082019050919050565b60006020820190508181036000830152612ad281612a96565b9050919050565b600060ff82169050919050565b612aef81612ad9565b82525050565b6000608082019050612b0a6000830187611f32565b612b176020830186612ae6565b612b246040830185611f32565b612b316060830184611f32565b9594505050505056fea2646970667358221220e42ca7728b8da928af6711a0b269c0e2195a367ca65225bb4ac8d64c75794f0c64736f6c634300080a0033a2646970667358221220f409b59d067214641b9a8e38cf335e11f23f86edbae5f6f551ee420bb783512a64736f6c634300080a0033",
  "linkReferences": {},
  "deployedLinkReferences": {}
}