{
  "_format": "hh-sol-artifact-1",
  "contractName": "DropFactory",
  "sourceName": "contracts/DropFactory.sol",
  "abi": [
    {
      "inputs": [
        {
          "internalType": "uint256",
          "name": "_fee",
          "type": "uint256"
        },
        {
          "internalType": "address",
          "name": "_feeRecipient",
          "type": "address"
        }
      ],
      "stateMutability": "nonpayable",
      "type": "constructor"
    },
    {
      "anonymous": false,
      "inputs": [
        {
          "indexed": true,
          "internalType": "address",
          "name": "creator",
          "type": "address"
        },
        {
          "indexed": true,
          "internalType": "address",
          "name": "drop",
          "type": "address"
        },
        {
          "indexed": true,
          "internalType": "address",
          "name": "token",
          "type": "address"
        },
        {
          "indexed": false,
          "internalType": "uint256",
          "name": "amount",
          "type": "uint256"
        },
        {
          "indexed": false,
          "internalType": "uint256",
          "name": "maxClaims",
          "type": "uint256"
        },
        {
          "indexed": false,
          "internalType": "bytes32",
          "name": "zkPassSchemaId",
          "type": "bytes32"
        },
        {
          "indexed": false,
          "internalType": "uint256",
          "name": "expiration",
          "type": "uint256"
        },
        {
          "indexed": false,
          "internalType": "bytes32",
          "name": "metadataIpfsHash",
          "type": "bytes32"
        }
      ],
      "name": "DropCreated",
      "type": "event"
    },
    {
      "anonymous": false,
      "inputs": [
        {
          "indexed": false,
          "internalType": "address",
          "name": "newFeeRecipient",
          "type": "address"
        }
      ],
      "name": "FeeRecipientUpdated",
      "type": "event"
    },
    {
      "anonymous": false,
      "inputs": [
        {
          "indexed": false,
          "internalType": "uint256",
          "name": "newFee",
          "type": "uint256"
        }
      ],
      "name": "FeeUpdated",
      "type": "event"
    },
    {
      "anonymous": false,
      "inputs": [
        {
          "indexed": true,
          "internalType": "address",
          "name": "previousOwner",
          "type": "address"
        },
        {
          "indexed": true,
          "internalType": "address",
          "name": "newOwner",
          "type": "address"
        }
      ],
      "name": "OwnershipTransferred",
      "type": "event"
    },
    {
      "inputs": [
        {
          "internalType": "address",
          "name": "token",
          "type": "address"
        },
        {
          "internalType": "uint256",
          "name": "amount",
          "type": "uint256"
        },
        {
          "internalType": "uint256",
          "name": "maxClaims",
          "type": "uint256"
        },
        {
          "internalType": "bytes32",
          "name": "zkPassSchemaId",
          "type": "bytes32"
        },
        {
          "internalType": "uint256",
          "name": "expiration",
          "type": "uint256"
        },
        {
          "internalType": "bytes32",
          "name": "metadataIpfsHash",
          "type": "bytes32"
        }
      ],
      "name": "createDrop",
      "outputs": [
        {
          "internalType": "address",
          "name": "dropAddress",
          "type": "address"
        }
      ],
      "stateMutability": "nonpayable",
      "type": "function"
    },
    {
      "inputs": [],
      "name": "fee",
      "outputs": [
        {
          "internalType": "uint256",
          "name": "",
          "type": "uint256"
        }
      ],
      "stateMutability": "view",
      "type": "function"
    },
    {
      "inputs": [],
      "name": "feeRecipient",
      "outputs": [
        {
          "internalType": "address",
          "name": "",
          "type": "address"
        }
      ],
      "stateMutability": "view",
      "type": "function"
    },
    {
      "inputs": [],
      "name": "owner",
      "outputs": [
        {
          "internalType": "address",
          "name": "",
          "type": "address"
        }
      ],
      "stateMutability": "view",
      "type": "function"
    },
    {
      "inputs": [],
      "name": "renounceOwnership",
      "outputs": [],
      "stateMutability": "nonpayable",
      "type": "function"
    },
    {
      "inputs": [
        {
          "internalType": "address",
          "name": "newOwner",
          "type": "address"
        }
      ],
      "name": "transferOwnership",
      "outputs": [],
      "stateMutability": "nonpayable",
      "type": "function"
    },
    {
      "inputs": [
        {
          "internalType": "uint256",
          "name": "_fee",
          "type": "uint256"
        }
      ],
      "name": "updateFee",
      "outputs": [],
      "stateMutability": "nonpayable",
      "type": "function"
    },
    {
      "inputs": [
        {
          "internalType": "address",
          "name": "_feeRecipient",
          "type": "address"
        }
      ],
      "name": "updateFeeRecipient",
      "outputs": [],
      "stateMutability": "nonpayable",
      "type": "function"
    }
  ],
  "bytecode": "0x60806040523480156200001157600080fd5b506040516200365638038062003656833981810160405281019062000037919062000218565b620000576200004b620000a760201b60201c565b620000af60201b60201c565b8160018190555080600260006101000a81548173ffffffffffffffffffffffffffffffffffffffff021916908373ffffffffffffffffffffffffffffffffffffffff16021790555050506200025f565b600033905090565b60008060009054906101000a900473ffffffffffffffffffffffffffffffffffffffff169050816000806101000a81548173ffffffffffffffffffffffffffffffffffffffff021916908373ffffffffffffffffffffffffffffffffffffffff1602179055508173ffffffffffffffffffffffffffffffffffffffff168173ffffffffffffffffffffffffffffffffffffffff167f8be0079c531659141344cd1fd0a4f28419497f9722a3daafe3b4186f6b6457e060405160405180910390a35050565b600080fd5b6000819050919050565b6200018d8162000178565b81146200019957600080fd5b50565b600081519050620001ad8162000182565b92915050565b600073ffffffffffffffffffffffffffffffffffffffff82169050919050565b6000620001e082620001b3565b9050919050565b620001f281620001d3565b8114620001fe57600080fd5b50565b6000815190506200021281620001e7565b92915050565b6000806040838503121562000232576200023162000173565b5b600062000242858286016200019c565b9250506020620002558582860162000201565b9150509250929050565b6133e7806200026f6000396000f3fe60806040523480156200001157600080fd5b5060043610620000945760003560e01c8063ac1d09c31162000063578063ac1d09c31462000109578063ddca3f43146200013f578063f160d3691462000161578063f2fde38b14620001815762000094565b8063469048401462000099578063715018a614620000bb5780638da5cb5b14620000c75780639012c4a814620000e9575b600080fd5b620000a3620001a1565b604051620000b29190620008ac565b60405180910390f35b620000c5620001c7565b005b620000d1620001df565b604051620000e09190620008ac565b60405180910390f35b62000107600480360381019062000101919062000909565b62000208565b005b620001276004803603810190620001219190620009a7565b62000255565b604051620001369190620008ac565b60405180910390f35b62000149620005f0565b60405162000158919062000a54565b60405180910390f35b6200017f600480360381019062000179919062000a71565b620005f6565b005b6200019f600480360381019062000199919062000a71565b6200067d565b005b600260009054906101000a900473ffffffffffffffffffffffffffffffffffffffff1681565b620001d162000708565b620001dd60006200078d565b565b60008060009054906101000a900473ffffffffffffffffffffffffffffffffffffffff16905090565b6200021262000708565b806001819055507f8c4d35e54a3f2ef1134138fd8ea3daee6a3c89e10d2665996babdf70261e2c76816040516200024a919062000a54565b60405180910390a150565b600080858762000266919062000ad2565b90506000612710600154836200027d919062000ad2565b62000289919062000b62565b9050600081836200029b919062000b9a565b90508973ffffffffffffffffffffffffffffffffffffffff166323b872dd3330846040518463ffffffff1660e01b8152600401620002dc9392919062000bf7565b6020604051808303816000875af1158015620002fc573d6000803e3d6000fd5b505050506040513d601f19601f8201168201806040525081019062000322919062000c71565b62000364576040517f08c379a00000000000000000000000000000000000000000000000000000000081526004016200035b9062000d04565b60405180910390fd5b6000338b8b8b8b8b8b6040516200037b9062000859565b6200038d979695949392919062000d37565b604051809103906000f080158015620003aa573d6000803e3d6000fd5b5090508094508a73ffffffffffffffffffffffffffffffffffffffff1663a9059cbb600260009054906101000a900473ffffffffffffffffffffffffffffffffffffffff16856040518363ffffffff1660e01b81526004016200040f92919062000db4565b6020604051808303816000875af11580156200042f573d6000803e3d6000fd5b505050506040513d601f19601f8201168201806040525081019062000455919062000c71565b62000497576040517f08c379a00000000000000000000000000000000000000000000000000000000081526004016200048e9062000e31565b60405180910390fd5b8a73ffffffffffffffffffffffffffffffffffffffff1663a9059cbb86866040518363ffffffff1660e01b8152600401620004d492919062000db4565b6020604051808303816000875af1158015620004f4573d6000803e3d6000fd5b505050506040513d601f19601f820116820180604052508101906200051a919062000c71565b6200055c576040517f08c379a0000000000000000000000000000000000000000000000000000000008152600401620005539062000ea3565b60405180910390fd5b8a73ffffffffffffffffffffffffffffffffffffffff168573ffffffffffffffffffffffffffffffffffffffff163373ffffffffffffffffffffffffffffffffffffffff167f3eb8cf3e03863425c37860fd5ad144f8e9647b8b25791c6d6b16f3327ff9c8578d8d8d8d8d604051620005da95949392919062000ec5565b60405180910390a4505050509695505050505050565b60015481565b6200060062000708565b80600260006101000a81548173ffffffffffffffffffffffffffffffffffffffff021916908373ffffffffffffffffffffffffffffffffffffffff1602179055507f7a7b5a0a132f9e0581eb8527f66eae9ee89c2a3e79d4ac7e41a1f1f4d48a7fc281604051620006729190620008ac565b60405180910390a150565b6200068762000708565b600073ffffffffffffffffffffffffffffffffffffffff168173ffffffffffffffffffffffffffffffffffffffff161415620006fa576040517f08c379a0000000000000000000000000000000000000000000000000000000008152600401620006f19062000f98565b60405180910390fd5b62000705816200078d565b50565b6200071262000851565b73ffffffffffffffffffffffffffffffffffffffff1662000732620001df565b73ffffffffffffffffffffffffffffffffffffffff16146200078b576040517f08c379a000000000000000000000000000000000000000000000000000000000815260040162000782906200100a565b60405180910390fd5b565b60008060009054906101000a900473ffffffffffffffffffffffffffffffffffffffff169050816000806101000a81548173ffffffffffffffffffffffffffffffffffffffff021916908373ffffffffffffffffffffffffffffffffffffffff1602179055508173ffffffffffffffffffffffffffffffffffffffff168173ffffffffffffffffffffffffffffffffffffffff167f8be0079c531659141344cd1fd0a4f28419497f9722a3daafe3b4186f6b6457e060405160405180910390a35050565b600033905090565b612385806200102d83390190565b600073ffffffffffffffffffffffffffffffffffffffff82169050919050565b6000620008948262000867565b9050919050565b620008a68162000887565b82525050565b6000602082019050620008c360008301846200089b565b92915050565b600080fd5b6000819050919050565b620008e381620008ce565b8114620008ef57600080fd5b50565b6000813590506200090381620008d8565b92915050565b600060208284031215620009225762000921620008c9565b5b60006200093284828501620008f2565b91505092915050565b620009468162000887565b81146200095257600080fd5b50565b60008135905062000966816200093b565b92915050565b6000819050919050565b62000981816200096c565b81146200098d57600080fd5b50565b600081359050620009a18162000976565b92915050565b60008060008060008060c08789031215620009c757620009c6620008c9565b5b6000620009d789828a0162000955565b9650506020620009ea89828a01620008f2565b9550506040620009fd89828a01620008f2565b945050606062000a1089828a0162000990565b935050608062000a2389828a01620008f2565b92505060a062000a3689828a0162000990565b9150509295509295509295565b62000a4e81620008ce565b82525050565b600060208201905062000a6b600083018462000a43565b92915050565b60006020828403121562000a8a5762000a89620008c9565b5b600062000a9a8482850162000955565b91505092915050565b7f4e487b7100000000000000000000000000000000000000000000000000000000600052601160045260246000fd5b600062000adf82620008ce565b915062000aec83620008ce565b9250817fffffffffffffffffffffffffffffffffffffffffffffffffffffffffffffffff048311821515161562000b285762000b2762000aa3565b5b828202905092915050565b7f4e487b7100000000000000000000000000000000000000000000000000000000600052601260045260246000fd5b600062000b6f82620008ce565b915062000b7c83620008ce565b92508262000b8f5762000b8e62000b33565b5b828204905092915050565b600062000ba782620008ce565b915062000bb483620008ce565b9250827fffffffffffffffffffffffffffffffffffffffffffffffffffffffffffffffff0382111562000bec5762000beb62000aa3565b5b828201905092915050565b600060608201905062000c0e60008301866200089b565b62000c1d60208301856200089b565b62000c2c604083018462000a43565b949350505050565b60008115159050919050565b62000c4b8162000c34565b811462000c5757600080fd5b50565b60008151905062000c6b8162000c40565b92915050565b60006020828403121562000c8a5762000c89620008c9565b5b600062000c9a8482850162000c5a565b91505092915050565b600082825260208201905092915050565b7f546f6b656e207472616e7366657220746f20666163746f7279206661696c6564600082015250565b600062000cec60208362000ca3565b915062000cf98262000cb4565b602082019050919050565b6000602082019050818103600083015262000d1f8162000cdd565b9050919050565b62000d31816200096c565b82525050565b600060e08201905062000d4e600083018a6200089b565b62000d5d60208301896200089b565b62000d6c604083018862000a43565b62000d7b606083018762000a43565b62000d8a608083018662000d26565b62000d9960a083018562000a43565b62000da860c083018462000d26565b98975050505050505050565b600060408201905062000dcb60008301856200089b565b62000dda602083018462000a43565b9392505050565b7f466565207472616e73666572206661696c656400000000000000000000000000600082015250565b600062000e1960138362000ca3565b915062000e268262000de1565b602082019050919050565b6000602082019050818103600083015262000e4c8162000e0a565b9050919050565b7f546f6b656e207472616e7366657220746f2064726f70206661696c6564000000600082015250565b600062000e8b601d8362000ca3565b915062000e988262000e53565b602082019050919050565b6000602082019050818103600083015262000ebe8162000e7c565b9050919050565b600060a08201905062000edc600083018862000a43565b62000eeb602083018762000a43565b62000efa604083018662000d26565b62000f09606083018562000a43565b62000f18608083018462000d26565b9695505050505050565b7f4f776e61626c653a206e6577206f776e657220697320746865207a65726f206160008201527f6464726573730000000000000000000000000000000000000000000000000000602082015250565b600062000f8060268362000ca3565b915062000f8d8262000f22565b604082019050919050565b6000602082019050818103600083015262000fb38162000f71565b9050919050565b7f4f776e61626c653a2063616c6c6572206973206e6f7420746865206f776e6572600082015250565b600062000ff260208362000ca3565b915062000fff8262000fba565b602082019050919050565b60006020820190508181036000830152620010258162000fe3565b905091905056fe60806040523480156200001157600080fd5b506040516200238538038062002385833981810160405281019062000037919062000285565b620000576200004b620000d960201b60201c565b620000e160201b60201c565b85600160006101000a81548173ffffffffffffffffffffffffffffffffffffffff021916908373ffffffffffffffffffffffffffffffffffffffff1602179055508460028190555083600381905550826005819055508160078190555080600881905550620000cc87620000e160201b60201c565b5050505050505062000338565b600033905090565b60008060009054906101000a900473ffffffffffffffffffffffffffffffffffffffff169050816000806101000a81548173ffffffffffffffffffffffffffffffffffffffff021916908373ffffffffffffffffffffffffffffffffffffffff1602179055508173ffffffffffffffffffffffffffffffffffffffff168173ffffffffffffffffffffffffffffffffffffffff167f8be0079c531659141344cd1fd0a4f28419497f9722a3daafe3b4186f6b6457e060405160405180910390a35050565b600080fd5b600073ffffffffffffffffffffffffffffffffffffffff82169050919050565b6000620001d782620001aa565b9050919050565b620001e981620001ca565b8114620001f557600080fd5b50565b6000815190506200020981620001de565b92915050565b6000819050919050565b62000224816200020f565b81146200023057600080fd5b50565b600081519050620002448162000219565b92915050565b6000819050919050565b6200025f816200024a565b81146200026b57600080fd5b50565b6000815190506200027f8162000254565b92915050565b600080600080600080600060e0888a031215620002a757620002a6620001a5565b5b6000620002b78a828b01620001f8565b9750506020620002ca8a828b01620001f8565b9650506040620002dd8a828b0162000233565b9550506060620002f08a828b0162000233565b9450506080620003038a828b016200026e565b93505060a0620003168a828b0162000233565b92505060c0620003298a828b016200026e565b91505092959891949750929550565b61203d80620003486000396000f3fe608060405234801561001057600080fd5b506004361061012c5760003560e01c8063834d820f116100ad578063cc3c0f0611610071578063cc3c0f061461030f578063cf5380b41461033f578063dcc59b6f1461035d578063f2fde38b1461037b578063fc0c546a146103975761012c565b8063834d820f1461026757806384515a44146102855780638da5cb5b146102a3578063aa8c217c146102c1578063b89c3952146102df5761012c565b806357421f1a116100f457806357421f1a146101c3578063715018a6146101f357806373278978146101fd5780637587d0341461021957806375f12b21146102495761012c565b8063037837d51461013157806307da68f514610161578063306292fe1461016b57806337e58fca146101895780634665096d146101a5575b600080fd5b61014b6004803603810190610146919061132a565b6103b5565b60405161015891906113b4565b60405180910390f35b61016961045a565b005b610173610682565b60405161018091906113de565b60405180910390f35b6101a3600480360381019061019e91906113f9565b610688565b005b6101ad6106ed565b6040516101ba9190611530565b60405180910390f35b6101dd60048036038101906101d8919061154b565b6106f3565b6040516101ea91906113b4565b60405180910390f35b6101fb61078b565b005b610217600480360381019061021291906115f4565b61079f565b005b610233600480360381019061022e91906116ce565b6107b8565b60405161024091906113b4565b60405180910390f35b610251610843565b60405161025e91906113b4565b60405180910390f35b61026f610856565b60405161027c919061174c565b60405180910390f35b61028d61086e565b60405161029a91906113de565b60405180910390f35b6102ab610874565b6040516102b8919061174c565b60405180910390f35b6102c961089d565b6040516102d69190611530565b60405180910390f35b6102f960048036038101906102f49190611767565b6108a3565b60405161030691906113b4565b60405180910390f35b61032960048036038101906103249190611767565b6108cd565b60405161033691906113b4565b60405180910390f35b6103476108ed565b6040516103549190611530565b60405180910390f35b6103656108f3565b6040516103729190611530565b60405180910390f35b61039560048036038101906103909190611794565b6108f9565b005b61039f61097d565b6040516103ac919061174c565b60405180910390f35b60008084600554856040516020016103cf939291906117c1565b604051602081830303815290604052905060006103f282805190602001206109a3565b9050600061040985836109d990919063ffffffff16565b90507319a567b3b212a5b35ba0e3b600fbed5c2ee9083d73ffffffffffffffffffffffffffffffffffffffff168173ffffffffffffffffffffffffffffffffffffffff161493505050509392505050565b610462610a00565b600660009054906101000a900460ff16156104b2576040517f08c379a00000000000000000000000000000000000000000000000000000000081526004016104a990611855565b60405180910390fd5b6001600660006101000a81548160ff0219169083151502179055506000600160009054906101000a900473ffffffffffffffffffffffffffffffffffffffff1673ffffffffffffffffffffffffffffffffffffffff166370a08231306040518263ffffffff1660e01b815260040161052a919061174c565b602060405180830381865afa158015610547573d6000803e3d6000fd5b505050506040513d601f19601f8201168201806040525081019061056b91906118a1565b9050600160009054906101000a900473ffffffffffffffffffffffffffffffffffffffff1673ffffffffffffffffffffffffffffffffffffffff1663a9059cbb6105b3610874565b836040518363ffffffff1660e01b81526004016105d19291906118ce565b6020604051808303816000875af11580156105f0573d6000803e3d6000fd5b505050506040513d601f19601f820116820180604052508101906106149190611923565b610653576040517f08c379a000000000000000000000000000000000000000000000000000000000815260040161064a9061199c565b60405180910390fd5b7f7acc84e34091ae817647a4c49116f5cc07f319078ba80f8f5fde37ea7e25cbd660405160405180910390a150565b60085481565b6106938585856107b8565b6106d2576040517f08c379a00000000000000000000000000000000000000000000000000000000081526004016106c990611a08565b60405180910390fd5b6106e28989898989898888610a7e565b505050505050505050565b60075481565b60008087600554888888604051602001610711959493929190611a28565b6040516020818303038152906040529050600061073482805190602001206109a3565b9050600061074b85836109d990919063ffffffff16565b90508573ffffffffffffffffffffffffffffffffffffffff168173ffffffffffffffffffffffffffffffffffffffff161493505050509695505050505050565b610793610a00565b61079d6000610dcd565b565b6107af8787878787888888610a7e565b50505050505050565b600080846040516020016107cc919061174c565b604051602081830303815290604052905060006107ef82805190602001206109a3565b9050600061080685836109d990919063ffffffff16565b90508573ffffffffffffffffffffffffffffffffffffffff168173ffffffffffffffffffffffffffffffffffffffff161493505050509392505050565b600660009054906101000a900460ff1681565b7319a567b3b212a5b35ba0e3b600fbed5c2ee9083d81565b60055481565b60008060009054906101000a900473ffffffffffffffffffffffffffffffffffffffff16905090565b60025481565b60006009600083815260200190815260200160002060009054906101000a900460ff169050919050565b60096020528060005260406000206000915054906101000a900460ff1681565b60035481565b60045481565b610901610a00565b600073ffffffffffffffffffffffffffffffffffffffff168173ffffffffffffffffffffffffffffffffffffffff161415610971576040517f08c379a000000000000000000000000000000000000000000000000000000000815260040161096890611aed565b60405180910390fd5b61097a81610dcd565b50565b600160009054906101000a900473ffffffffffffffffffffffffffffffffffffffff1681565b60007f19457468657265756d205369676e6564204d6573736167653a0a33320000000060005281601c52603c6000209050919050565b60008060006109e88585610e91565b915091506109f581610ee3565b819250505092915050565b610a08611051565b73ffffffffffffffffffffffffffffffffffffffff16610a26610874565b73ffffffffffffffffffffffffffffffffffffffff1614610a7c576040517f08c379a0000000000000000000000000000000000000000000000000000000008152600401610a7390611b59565b60405180910390fd5b565b600660009054906101000a900460ff1615610ace576040517f08c379a0000000000000000000000000000000000000000000000000000000008152600401610ac590611855565b60405180910390fd5b6007544210610b12576040517f08c379a0000000000000000000000000000000000000000000000000000000008152600401610b0990611bc5565b60405180910390fd5b6009600087815260200190815260200160002060009054906101000a900460ff1615610b73576040517f08c379a0000000000000000000000000000000000000000000000000000000008152600401610b6a90611c31565b60405180910390fd5b60035460045410610bb9576040517f08c379a0000000000000000000000000000000000000000000000000000000008152600401610bb090611c9d565b60405180910390fd5b610bc48888846103b5565b610c03576040517f08c379a0000000000000000000000000000000000000000000000000000000008152600401610bfa90611d09565b60405180910390fd5b610c11888787868b866106f3565b610c50576040517f08c379a0000000000000000000000000000000000000000000000000000000008152600401610c4790611d75565b60405180910390fd5b60016009600088815260200190815260200160002060006101000a81548160ff02191690831515021790555060046000815480929190610c8f90611dc4565b9190505550600160009054906101000a900473ffffffffffffffffffffffffffffffffffffffff1673ffffffffffffffffffffffffffffffffffffffff1663a9059cbb856002546040518363ffffffff1660e01b8152600401610cf39291906118ce565b6020604051808303816000875af1158015610d12573d6000803e3d6000fd5b505050506040513d601f19601f82011682018060405250810190610d369190611923565b610d75576040517f08c379a0000000000000000000000000000000000000000000000000000000008152600401610d6c9061199c565b60405180910390fd5b8373ffffffffffffffffffffffffffffffffffffffff167f91d697238e9aa9f3172d17522c9be529b94a892481554e1ea619369b5b12f39a87604051610dbb91906113de565b60405180910390a25050505050505050565b60008060009054906101000a900473ffffffffffffffffffffffffffffffffffffffff169050816000806101000a81548173ffffffffffffffffffffffffffffffffffffffff021916908373ffffffffffffffffffffffffffffffffffffffff1602179055508173ffffffffffffffffffffffffffffffffffffffff168173ffffffffffffffffffffffffffffffffffffffff167f8be0079c531659141344cd1fd0a4f28419497f9722a3daafe3b4186f6b6457e060405160405180910390a35050565b600080604183511415610ed35760008060006020860151925060408601519150606086015160001a9050610ec787828585611059565b94509450505050610edc565b60006002915091505b9250929050565b60006004811115610ef757610ef6611e0d565b5b816004811115610f0a57610f09611e0d565b5b1415610f155761104e565b60016004811115610f2957610f28611e0d565b5b816004811115610f3c57610f3b611e0d565b5b1415610f7d576040517f08c379a0000000000000000000000000000000000000000000000000000000008152600401610f7490611e88565b60405180910390fd5b60026004811115610f9157610f90611e0d565b5b816004811115610fa457610fa3611e0d565b5b1415610fe5576040517f08c379a0000000000000000000000000000000000000000000000000000000008152600401610fdc90611ef4565b60405180910390fd5b60036004811115610ff957610ff8611e0d565b5b81600481111561100c5761100b611e0d565b5b141561104d576040517f08c379a000000000000000000000000000000000000000000000000000000000815260040161104490611f86565b60405180910390fd5b5b50565b600033905090565b6000807f7fffffffffffffffffffffffffffffff5d576e7357a4501ddfe92f46681b20a08360001c1115611094576000600391509150611133565b6000600187878787604051600081526020016040526040516110b99493929190611fc2565b6020604051602081039080840390855afa1580156110db573d6000803e3d6000fd5b505050602060405103519050600073ffffffffffffffffffffffffffffffffffffffff168173ffffffffffffffffffffffffffffffffffffffff16141561112a57600060019250925050611133565b80600092509250505b94509492505050565b6000604051905090565b600080fd5b600080fd5b6000819050919050565b61116381611150565b811461116e57600080fd5b50565b6000813590506111808161115a565b92915050565b600073ffffffffffffffffffffffffffffffffffffffff82169050919050565b60006111b182611186565b9050919050565b6111c1816111a6565b81146111cc57600080fd5b50565b6000813590506111de816111b8565b92915050565b600080fd5b600080fd5b6000601f19601f8301169050919050565b7f4e487b7100000000000000000000000000000000000000000000000000000000600052604160045260246000fd5b611237826111ee565b810181811067ffffffffffffffff82111715611256576112556111ff565b5b80604052505050565b600061126961113c565b9050611275828261122e565b919050565b600067ffffffffffffffff821115611295576112946111ff565b5b61129e826111ee565b9050602081019050919050565b82818337600083830152505050565b60006112cd6112c88461127a565b61125f565b9050828152602081018484840111156112e9576112e86111e9565b5b6112f48482856112ab565b509392505050565b600082601f830112611311576113106111e4565b5b81356113218482602086016112ba565b91505092915050565b60008060006060848603121561134357611342611146565b5b600061135186828701611171565b9350506020611362868287016111cf565b925050604084013567ffffffffffffffff8111156113835761138261114b565b5b61138f868287016112fc565b9150509250925092565b60008115159050919050565b6113ae81611399565b82525050565b60006020820190506113c960008301846113a5565b92915050565b6113d881611150565b82525050565b60006020820190506113f360008301846113cf565b92915050565b60008060008060008060008060006101208a8c03121561141c5761141b611146565b5b600061142a8c828d01611171565b995050602061143b8c828d016111cf565b985050604061144c8c828d01611171565b975050606061145d8c828d01611171565b965050608061146e8c828d016111cf565b95505060a061147f8c828d016111cf565b94505060c08a013567ffffffffffffffff8111156114a05761149f61114b565b5b6114ac8c828d016112fc565b93505060e08a013567ffffffffffffffff8111156114cd576114cc61114b565b5b6114d98c828d016112fc565b9250506101008a013567ffffffffffffffff8111156114fb576114fa61114b565b5b6115078c828d016112fc565b9150509295985092959850929598565b6000819050919050565b61152a81611517565b82525050565b60006020820190506115456000830184611521565b92915050565b60008060008060008060c0878903121561156857611567611146565b5b600061157689828a01611171565b965050602061158789828a01611171565b955050604061159889828a01611171565b94505060606115a989828a016111cf565b93505060806115ba89828a016111cf565b92505060a087013567ffffffffffffffff8111156115db576115da61114b565b5b6115e789828a016112fc565b9150509295509295509295565b600080600080600080600060e0888a03121561161357611612611146565b5b60006116218a828b01611171565b97505060206116328a828b016111cf565b96505060406116438a828b01611171565b95505060606116548a828b01611171565b94505060806116658a828b016111cf565b93505060a088013567ffffffffffffffff8111156116865761168561114b565b5b6116928a828b016112fc565b92505060c088013567ffffffffffffffff8111156116b3576116b261114b565b5b6116bf8a828b016112fc565b91505092959891949750929550565b6000806000606084860312156116e7576116e6611146565b5b60006116f5868287016111cf565b9350506020611706868287016111cf565b925050604084013567ffffffffffffffff8111156117275761172661114b565b5b611733868287016112fc565b9150509250925092565b611746816111a6565b82525050565b6000602082019050611761600083018461173d565b92915050565b60006020828403121561177d5761177c611146565b5b600061178b84828501611171565b91505092915050565b6000602082840312156117aa576117a9611146565b5b60006117b8848285016111cf565b91505092915050565b60006060820190506117d660008301866113cf565b6117e360208301856113cf565b6117f0604083018461173d565b949350505050565b600082825260208201905092915050565b7f43616d706169676e2073746f7070656400000000000000000000000000000000600082015250565b600061183f6010836117f8565b915061184a82611809565b602082019050919050565b6000602082019050818103600083015261186e81611832565b9050919050565b61187e81611517565b811461188957600080fd5b50565b60008151905061189b81611875565b92915050565b6000602082840312156118b7576118b6611146565b5b60006118c58482850161188c565b91505092915050565b60006040820190506118e3600083018561173d565b6118f06020830184611521565b9392505050565b61190081611399565b811461190b57600080fd5b50565b60008151905061191d816118f7565b92915050565b60006020828403121561193957611938611146565b5b60006119478482850161190e565b91505092915050565b7f546f6b656e207472616e73666572206661696c65640000000000000000000000600082015250565b60006119866015836117f8565b915061199182611950565b602082019050919050565b600060208201905081810360008301526119b581611979565b9050919050565b7f496e76616c696420657068656d6572616c206b6579207369676e617475726500600082015250565b60006119f2601f836117f8565b91506119fd826119bc565b602082019050919050565b60006020820190508181036000830152611a21816119e5565b9050919050565b600060a082019050611a3d60008301886113cf565b611a4a60208301876113cf565b611a5760408301866113cf565b611a6460608301856113cf565b611a71608083018461173d565b9695505050505050565b7f4f776e61626c653a206e6577206f776e657220697320746865207a65726f206160008201527f6464726573730000000000000000000000000000000000000000000000000000602082015250565b6000611ad76026836117f8565b9150611ae282611a7b565b604082019050919050565b60006020820190508181036000830152611b0681611aca565b9050919050565b7f4f776e61626c653a2063616c6c6572206973206e6f7420746865206f776e6572600082015250565b6000611b436020836117f8565b9150611b4e82611b0d565b602082019050919050565b60006020820190508181036000830152611b7281611b36565b9050919050565b7f44726f7020686173206578706972656400000000000000000000000000000000600082015250565b6000611baf6010836117f8565b9150611bba82611b79565b602082019050919050565b60006020820190508181036000830152611bde81611ba2565b9050919050565b7f416c726561647920636c61696d65640000000000000000000000000000000000600082015250565b6000611c1b600f836117f8565b9150611c2682611be5565b602082019050919050565b60006020820190508181036000830152611c4a81611c0e565b9050919050565b7f416c6c20636c61696d7320657868617573746564000000000000000000000000600082015250565b6000611c876014836117f8565b9150611c9282611c51565b602082019050919050565b60006020820190508181036000830152611cb681611c7a565b9050919050565b7f496e76616c696420616c6c6f6361746f72207369676e61747572650000000000600082015250565b6000611cf3601b836117f8565b9150611cfe82611cbd565b602082019050919050565b60006020820190508181036000830152611d2281611ce6565b9050919050565b7f496e76616c69642076616c696461746f72207369676e61747572650000000000600082015250565b6000611d5f601b836117f8565b9150611d6a82611d29565b602082019050919050565b60006020820190508181036000830152611d8e81611d52565b9050919050565b7f4e487b7100000000000000000000000000000000000000000000000000000000600052601160045260246000fd5b6000611dcf82611517565b91507fffffffffffffffffffffffffffffffffffffffffffffffffffffffffffffffff821415611e0257611e01611d95565b5b600182019050919050565b7f4e487b7100000000000000000000000000000000000000000000000000000000600052602160045260246000fd5b7f45434453413a20696e76616c6964207369676e61747572650000000000000000600082015250565b6000611e726018836117f8565b9150611e7d82611e3c565b602082019050919050565b60006020820190508181036000830152611ea181611e65565b9050919050565b7f45434453413a20696e76616c6964207369676e6174757265206c656e67746800600082015250565b6000611ede601f836117f8565b9150611ee982611ea8565b602082019050919050565b60006020820190508181036000830152611f0d81611ed1565b9050919050565b7f45434453413a20696e76616c6964207369676e6174757265202773272076616c60008201527f7565000000000000000000000000000000000000000000000000000000000000602082015250565b6000611f706022836117f8565b9150611f7b82611f14565b604082019050919050565b60006020820190508181036000830152611f9f81611f63565b9050919050565b600060ff82169050919050565b611fbc81611fa6565b82525050565b6000608082019050611fd760008301876113cf565b611fe46020830186611fb3565b611ff160408301856113cf565b611ffe60608301846113cf565b9594505050505056fea2646970667358221220b440be03acb0e552a7cf4f43db6a8f7f84e7fa00411de7836d12b3b5c42e780d64736f6c634300080a0033a2646970667358221220206df2522afb36b5dc7b4199575732e5897532b5e8f6e68851575b799b0aa45664736f6c634300080a0033",
  "linkReferences": {},
  "deployedLinkReferences": {}
}